{
  "contractName": "FundFactory",
  "abi": [
    {
      "constant": false,
      "inputs": [],
      "name": "unpause",
      "outputs": [],
      "payable": false,
      "stateMutability": "nonpayable",
      "type": "function",
      "signature": "0x3f4ba83a"
    },
    {
      "constant": true,
      "inputs": [
        {
          "name": "account",
          "type": "address"
        }
      ],
      "name": "isPauser",
      "outputs": [
        {
          "name": "",
          "type": "bool"
        }
      ],
      "payable": false,
      "stateMutability": "view",
      "type": "function",
      "signature": "0x46fbf68e"
    },
    {
      "constant": true,
      "inputs": [],
      "name": "paused",
      "outputs": [
        {
          "name": "",
          "type": "bool"
        }
      ],
      "payable": false,
      "stateMutability": "view",
      "type": "function",
      "signature": "0x5c975abb"
    },
    {
      "constant": true,
      "inputs": [],
      "name": "noOfFunds",
      "outputs": [
        {
          "name": "",
          "type": "uint256"
        }
      ],
      "payable": false,
      "stateMutability": "view",
      "type": "function",
      "signature": "0x61cef63c"
    },
    {
      "constant": false,
      "inputs": [],
      "name": "renouncePauser",
      "outputs": [],
      "payable": false,
      "stateMutability": "nonpayable",
      "type": "function",
      "signature": "0x6ef8d66d"
    },
    {
      "constant": true,
      "inputs": [
        {
          "name": "",
          "type": "uint256"
        }
      ],
      "name": "funds",
      "outputs": [
        {
          "name": "name",
          "type": "string"
        },
        {
          "name": "fundHardCap",
          "type": "uint256"
        },
        {
          "name": "balance",
          "type": "uint256"
        },
        {
          "name": "benfitiaryAddress",
          "type": "address"
        },
        {
          "name": "state",
          "type": "uint8"
        },
        {
          "name": "owner",
          "type": "address"
        }
      ],
      "payable": false,
      "stateMutability": "view",
      "type": "function",
      "signature": "0x7b8e8895"
    },
    {
      "constant": false,
      "inputs": [
        {
          "name": "account",
          "type": "address"
        }
      ],
      "name": "addPauser",
      "outputs": [],
      "payable": false,
      "stateMutability": "nonpayable",
      "type": "function",
      "signature": "0x82dc1ec4"
    },
    {
      "constant": false,
      "inputs": [],
      "name": "pause",
      "outputs": [],
      "payable": false,
      "stateMutability": "nonpayable",
      "type": "function",
      "signature": "0x8456cb59"
    },
    {
      "anonymous": false,
      "inputs": [
        {
          "indexed": false,
          "name": "fundId",
          "type": "uint256"
        }
      ],
      "name": "fundCreation",
      "type": "event",
      "signature": "0x4771e80052e6e5f0f71cde214274e0f59da183f995064e7dfd52f6f03ce7d0f9"
    },
    {
      "anonymous": false,
      "inputs": [
        {
          "indexed": false,
          "name": "messageReceived",
          "type": "uint256"
        }
      ],
      "name": "fundContribution",
      "type": "event",
      "signature": "0x2806e53c6cc387c88ad89c10b32d7ed063ba2aa223397b2c76b34f29bdbd9c23"
    },
    {
      "anonymous": false,
      "inputs": [
        {
          "indexed": false,
          "name": "fundId",
          "type": "uint256"
        }
      ],
      "name": "OnGoing",
      "type": "event",
      "signature": "0x5f1d2093163c2654dd9c69a585dab6a817ef360a2204a1fb49d12329d0479969"
    },
    {
      "anonymous": false,
      "inputs": [
        {
          "indexed": false,
          "name": "fundId",
          "type": "uint256"
        }
      ],
      "name": "Closed",
      "type": "event",
      "signature": "0x6cc09e7b5c3e49861ebe8f6867e1618fbfc14c8d0e968fde37c4243ca02a6f83"
    },
    {
      "anonymous": false,
      "inputs": [
        {
          "indexed": false,
          "name": "account",
          "type": "address"
        }
      ],
      "name": "Paused",
      "type": "event",
      "signature": "0x62e78cea01bee320cd4e420270b5ea74000d11b0c9f74754ebdbfc544b05a258"
    },
    {
      "anonymous": false,
      "inputs": [
        {
          "indexed": false,
          "name": "account",
          "type": "address"
        }
      ],
      "name": "Unpaused",
      "type": "event",
      "signature": "0x5db9ee0a495bf2e6ff9c91a7834c1ba4fdd244a5e8aa4e537bd38aeae4b073aa"
    },
    {
      "anonymous": false,
      "inputs": [
        {
          "indexed": true,
          "name": "account",
          "type": "address"
        }
      ],
      "name": "PauserAdded",
      "type": "event",
      "signature": "0x6719d08c1888103bea251a4ed56406bd0c3e69723c8a1686e017e7bbe159b6f8"
    },
    {
      "anonymous": false,
      "inputs": [
        {
          "indexed": true,
          "name": "account",
          "type": "address"
        }
      ],
      "name": "PauserRemoved",
      "type": "event",
      "signature": "0xcd265ebaf09df2871cc7bd4133404a235ba12eff2041bb89d9c714a2621c7c7e"
    },
    {
      "constant": false,
      "inputs": [
        {
          "name": "_name",
          "type": "string"
        },
        {
          "name": "_fundHardCap",
          "type": "uint256"
        },
        {
          "name": "_benfitiaryAddress",
          "type": "address"
        }
      ],
      "name": "createNewFund",
      "outputs": [],
      "payable": false,
      "stateMutability": "nonpayable",
      "type": "function",
      "signature": "0x60b1c7e1"
    },
    {
      "constant": false,
      "inputs": [
        {
          "name": "_fundId",
          "type": "uint256"
        }
      ],
      "name": "contributeToFund",
      "outputs": [],
      "payable": true,
      "stateMutability": "payable",
      "type": "function",
      "signature": "0x0b62d30f"
    },
    {
      "constant": true,
      "inputs": [
        {
          "name": "_fundId",
          "type": "uint256"
        }
      ],
      "name": "fundIdToName",
      "outputs": [
        {
          "name": "",
          "type": "string"
        }
      ],
      "payable": false,
      "stateMutability": "view",
      "type": "function",
      "signature": "0xf7c56a1c"
    },
    {
      "constant": true,
      "inputs": [],
      "name": "getNoOfFunds",
      "outputs": [
        {
          "name": "",
          "type": "uint256"
        }
      ],
      "payable": false,
      "stateMutability": "view",
      "type": "function",
      "signature": "0x221f1647"
    },
    {
      "constant": true,
      "inputs": [
        {
          "name": "_fundId",
          "type": "uint256"
        }
      ],
      "name": "fetchFundDetails",
      "outputs": [
        {
          "name": "",
          "type": "string"
        },
        {
          "name": "",
          "type": "uint256"
        },
        {
          "name": "",
          "type": "uint256"
        },
        {
          "name": "",
          "type": "address"
        },
        {
          "name": "",
          "type": "uint8"
        }
      ],
      "payable": false,
      "stateMutability": "view",
      "type": "function",
      "signature": "0x5b61c569"
    }
  ],
  "bytecode": "0x60806040526200001e336200003f640100000000026401000000009004565b6000600160006101000a81548160ff02191690831515021790555062000201565b62000063816000620000a964010000000002620013ec179091906401000000009004565b8073ffffffffffffffffffffffffffffffffffffffff167f6719d08c1888103bea251a4ed56406bd0c3e69723c8a1686e017e7bbe159b6f860405160405180910390a250565b600073ffffffffffffffffffffffffffffffffffffffff168173ffffffffffffffffffffffffffffffffffffffff1614151515620000e657600080fd5b6200010182826200016c640100000000026401000000009004565b1515156200010e57600080fd5b60018260000160008373ffffffffffffffffffffffffffffffffffffffff1673ffffffffffffffffffffffffffffffffffffffff16815260200190815260200160002060006101000a81548160ff0219169083151502179055505050565b60008073ffffffffffffffffffffffffffffffffffffffff168273ffffffffffffffffffffffffffffffffffffffff1614151515620001aa57600080fd5b8260000160008373ffffffffffffffffffffffffffffffffffffffff1673ffffffffffffffffffffffffffffffffffffffff16815260200190815260200160002060009054906101000a900460ff16905092915050565b6115db80620002116000396000f3fe6080604052600436106100c5576000357c0100000000000000000000000000000000000000000000000000000000900463ffffffff1680630b62d30f146100ca578063221f1647146100f85780633f4ba83a1461012357806346fbf68e1461013a5780635b61c569146101a35780635c975abb146102ad57806360b1c7e1146102dc57806361cef63c146103ce5780636ef8d66d146103f95780637b8e88951461041057806382dc1ec41461054d5780638456cb591461059e578063f7c56a1c146105b5575b600080fd5b6100f6600480360360208110156100e057600080fd5b8101908080359060200190929190505050610669565b005b34801561010457600080fd5b5061010d61095b565b6040518082815260200191505060405180910390f35b34801561012f57600080fd5b50610138610965565b005b34801561014657600080fd5b506101896004803603602081101561015d57600080fd5b81019080803573ffffffffffffffffffffffffffffffffffffffff169060200190929190505050610a14565b604051808215151515815260200191505060405180910390f35b3480156101af57600080fd5b506101dc600480360360208110156101c657600080fd5b8101908080359060200190929190505050610a31565b60405180806020018681526020018581526020018473ffffffffffffffffffffffffffffffffffffffff1673ffffffffffffffffffffffffffffffffffffffff16815260200183600181111561022e57fe5b60ff168152602001828103825287818151815260200191508051906020019080838360005b8381101561026e578082015181840152602081019050610253565b50505050905090810190601f16801561029b5780820380516001836020036101000a031916815260200191505b50965050505050505060405180910390f35b3480156102b957600080fd5b506102c2610c3c565b604051808215151515815260200191505060405180910390f35b3480156102e857600080fd5b506103cc600480360360608110156102ff57600080fd5b810190808035906020019064010000000081111561031c57600080fd5b82018360208201111561032e57600080fd5b8035906020019184600183028401116401000000008311171561035057600080fd5b91908080601f016020809104026020016040519081016040528093929190818152602001838380828437600081840152601f19601f82011690508083019250505050505050919291929080359060200190929190803573ffffffffffffffffffffffffffffffffffffffff169060200190929190505050610c53565b005b3480156103da57600080fd5b506103e3610e0f565b6040518082815260200191505060405180910390f35b34801561040557600080fd5b5061040e610e15565b005b34801561041c57600080fd5b506104496004803603602081101561043357600080fd5b8101908080359060200190929190505050610e20565b60405180806020018781526020018681526020018573ffffffffffffffffffffffffffffffffffffffff1673ffffffffffffffffffffffffffffffffffffffff16815260200184600181111561049b57fe5b60ff1681526020018373ffffffffffffffffffffffffffffffffffffffff1673ffffffffffffffffffffffffffffffffffffffff168152602001828103825288818151815260200191508051906020019080838360005b8381101561050d5780820151818401526020810190506104f2565b50505050905090810190601f16801561053a5780820380516001836020036101000a031916815260200191505b5097505050505050505060405180910390f35b34801561055957600080fd5b5061059c6004803603602081101561057057600080fd5b81019080803573ffffffffffffffffffffffffffffffffffffffff169060200190929190505050610f41565b005b3480156105aa57600080fd5b506105b3610f61565b005b3480156105c157600080fd5b506105ee600480360360208110156105d857600080fd5b8101908080359060200190929190505050611010565b6040518080602001828103825283818151815260200191508051906020019080838360005b8381101561062e578082015181840152602081019050610613565b50505050905090810190601f16801561065b5780820380516001836020036101000a031916815260200191505b509250505060405180910390f35b806000600181111561067757fe5b6003600083815260200190815260200160002060030160149054906101000a900460ff1660018111156106a657fe5b1415156106b257600080fd5b346000811115156106c257600080fd5b6106ca61149c565b6003600085815260200190815260200160002060c06040519081016040529081600082018054600181600116156101000203166002900480601f0160208091040260200160405190810160405280929190818152602001828054600181600116156101000203166002900480156107825780601f1061075757610100808354040283529160200191610782565b820191906000526020600020905b81548152906001019060200180831161076557829003601f168201915b5050505050815260200160018201548152602001600282015481526020016003820160009054906101000a900473ffffffffffffffffffffffffffffffffffffffff1673ffffffffffffffffffffffffffffffffffffffff1673ffffffffffffffffffffffffffffffffffffffff1681526020016003820160149054906101000a900460ff16600181111561081357fe5b600181111561081e57fe5b81526020016004820160009054906101000a900473ffffffffffffffffffffffffffffffffffffffff1673ffffffffffffffffffffffffffffffffffffffff1673ffffffffffffffffffffffffffffffffffffffff168152505090506000816020015190506000826040015190508181101561092f5734836040015101836040018181525050826060015173ffffffffffffffffffffffffffffffffffffffff166108fc349081150290604051600060405180830381858888f193505050501580156108ee573d6000803e3d6000fd5b507f2806e53c6cc387c88ad89c10b32d7ed063ba2aa223397b2c76b34f29bdbd9c2383604001516040518082815260200191505060405180910390a1610953565b60018360800190600181111561094157fe5b9081600181111561094e57fe5b815250505b505050505050565b6000600254905090565b61096e33610a14565b151561097957600080fd5b600160009054906101000a900460ff16151561099457600080fd5b6000600160006101000a81548160ff0219169083151502179055507f5db9ee0a495bf2e6ff9c91a7834c1ba4fdd244a5e8aa4e537bd38aeae4b073aa33604051808273ffffffffffffffffffffffffffffffffffffffff1673ffffffffffffffffffffffffffffffffffffffff16815260200191505060405180910390a1565b6000610a2a8260006111d790919063ffffffff16565b9050919050565b6060600080600080610a4161149c565b6003600088815260200190815260200160002060c06040519081016040529081600082018054600181600116156101000203166002900480601f016020809104026020016040519081016040528092919081815260200182805460018160011615610100020316600290048015610af95780601f10610ace57610100808354040283529160200191610af9565b820191906000526020600020905b815481529060010190602001808311610adc57829003601f168201915b5050505050815260200160018201548152602001600282015481526020016003820160009054906101000a900473ffffffffffffffffffffffffffffffffffffffff1673ffffffffffffffffffffffffffffffffffffffff1673ffffffffffffffffffffffffffffffffffffffff1681526020016003820160149054906101000a900460ff166001811115610b8a57fe5b6001811115610b9557fe5b81526020016004820160009054906101000a900473ffffffffffffffffffffffffffffffffffffffff1673ffffffffffffffffffffffffffffffffffffffff1673ffffffffffffffffffffffffffffffffffffffff1681525050905060608160000151905060008260400151905060008360200151905060008460800151905060008560600151905084838583859a509a509a509a509a5050505050505091939590929450565b6000600160009054906101000a900460ff16905090565b610c60600254600161126b565b6002819055506000600254905060c060405190810160405280858152602001848152602001600081526020018373ffffffffffffffffffffffffffffffffffffffff16815260200160006001811115610cb557fe5b81526020013373ffffffffffffffffffffffffffffffffffffffff16815250600360008381526020019081526020016000206000820151816000019080519060200190610d0392919061150a565b50602082015181600101556040820151816002015560608201518160030160006101000a81548173ffffffffffffffffffffffffffffffffffffffff021916908373ffffffffffffffffffffffffffffffffffffffff16021790555060808201518160030160146101000a81548160ff02191690836001811115610d8357fe5b021790555060a08201518160040160006101000a81548173ffffffffffffffffffffffffffffffffffffffff021916908373ffffffffffffffffffffffffffffffffffffffff1602179055509050507f4771e80052e6e5f0f71cde214274e0f59da183f995064e7dfd52f6f03ce7d0f9816040518082815260200191505060405180910390a150505050565b60025481565b610e1e33611289565b565b6003602052806000526040600020600091509050806000018054600181600116156101000203166002900480601f016020809104026020016040519081016040528092919081815260200182805460018160011615610100020316600290048015610ecc5780601f10610ea157610100808354040283529160200191610ecc565b820191906000526020600020905b815481529060010190602001808311610eaf57829003601f168201915b5050505050908060010154908060020154908060030160009054906101000a900473ffffffffffffffffffffffffffffffffffffffff16908060030160149054906101000a900460ff16908060040160009054906101000a900473ffffffffffffffffffffffffffffffffffffffff16905086565b610f4a33610a14565b1515610f5557600080fd5b610f5e816112e3565b50565b610f6a33610a14565b1515610f7557600080fd5b600160009054906101000a900460ff16151515610f9157600080fd5b60018060006101000a81548160ff0219169083151502179055507f62e78cea01bee320cd4e420270b5ea74000d11b0c9f74754ebdbfc544b05a25833604051808273ffffffffffffffffffffffffffffffffffffffff1673ffffffffffffffffffffffffffffffffffffffff16815260200191505060405180910390a1565b606061101a61149c565b6003600084815260200190815260200160002060c06040519081016040529081600082018054600181600116156101000203166002900480601f0160208091040260200160405190810160405280929190818152602001828054600181600116156101000203166002900480156110d25780601f106110a7576101008083540402835291602001916110d2565b820191906000526020600020905b8154815290600101906020018083116110b557829003601f168201915b5050505050815260200160018201548152602001600282015481526020016003820160009054906101000a900473ffffffffffffffffffffffffffffffffffffffff1673ffffffffffffffffffffffffffffffffffffffff1673ffffffffffffffffffffffffffffffffffffffff1681526020016003820160149054906101000a900460ff16600181111561116357fe5b600181111561116e57fe5b81526020016004820160009054906101000a900473ffffffffffffffffffffffffffffffffffffffff1673ffffffffffffffffffffffffffffffffffffffff1673ffffffffffffffffffffffffffffffffffffffff168152505090508060000151915050919050565b60008073ffffffffffffffffffffffffffffffffffffffff168273ffffffffffffffffffffffffffffffffffffffff161415151561121457600080fd5b8260000160008373ffffffffffffffffffffffffffffffffffffffff1673ffffffffffffffffffffffffffffffffffffffff16815260200190815260200160002060009054906101000a900460ff16905092915050565b600080828401905083811015151561127f57fe5b8091505092915050565b61129d81600061133d90919063ffffffff16565b8073ffffffffffffffffffffffffffffffffffffffff167fcd265ebaf09df2871cc7bd4133404a235ba12eff2041bb89d9c714a2621c7c7e60405160405180910390a250565b6112f78160006113ec90919063ffffffff16565b8073ffffffffffffffffffffffffffffffffffffffff167f6719d08c1888103bea251a4ed56406bd0c3e69723c8a1686e017e7bbe159b6f860405160405180910390a250565b600073ffffffffffffffffffffffffffffffffffffffff168173ffffffffffffffffffffffffffffffffffffffff161415151561137957600080fd5b61138382826111d7565b151561138e57600080fd5b60008260000160008373ffffffffffffffffffffffffffffffffffffffff1673ffffffffffffffffffffffffffffffffffffffff16815260200190815260200160002060006101000a81548160ff0219169083151502179055505050565b600073ffffffffffffffffffffffffffffffffffffffff168173ffffffffffffffffffffffffffffffffffffffff161415151561142857600080fd5b61143282826111d7565b15151561143e57600080fd5b60018260000160008373ffffffffffffffffffffffffffffffffffffffff1673ffffffffffffffffffffffffffffffffffffffff16815260200190815260200160002060006101000a81548160ff0219169083151502179055505050565b60c060405190810160405280606081526020016000815260200160008152602001600073ffffffffffffffffffffffffffffffffffffffff168152602001600060018111156114e757fe5b8152602001600073ffffffffffffffffffffffffffffffffffffffff1681525090565b828054600181600116156101000203166002900490600052602060002090601f016020900481019282601f1061154b57805160ff1916838001178555611579565b82800160010185558215611579579182015b8281111561157857825182559160200191906001019061155d565b5b509050611586919061158a565b5090565b6115ac91905b808211156115a8576000816000905550600101611590565b5090565b9056fea165627a7a72305820354116ec7f1c8f438d2fabbc7c2ec51f9b056fac188c7807c82f13283b9bacd50029",
  "source": "/*\n    This exercise has been updated to use Solidity version 0.5\n    Breaking changes from 0.4 to 0.5 can be found here: \n    https://solidity.readthedocs.io/en/v0.5.0/050-breaking-changes.html\n*/\n\npragma solidity ^0.5.0;\n\nimport \"./SafeMath.sol\";\nimport \"../client/node_modules/openzeppelin-solidity/contracts/lifecycle/Pausable.sol\";\n      \n\ncontract FundFactory is Pausable {\n\n\n  /* variable called noOfFunds to track the most total list of funds # */\n  address owner;\n  uint public noOfFunds;\n  /* funds creates a public mapping that maps the fundId (a number) to a Fund.\n  */\n  mapping (uint => Fund) public funds;\n\n  /* reflect  the state of a fund using State enum*/\n  enum State  {onGoing, Closed}\n\n  /**  struct used to strore list of funds, created one for each new fund\n    * name, name of the fund\n    * fundHardCap, hard cap upper limit for the fund\n    * balance, current balance fo the fund\n    *benfitiaryAddress benefitiary address of the fund\n  **/\n    struct Fund {\n        string name;\n        uint fundHardCap;\n        uint balance;\n        address payable benfitiaryAddress;\n        State state;\n        address owner;\n    }\n    //events below fired for each function call that change contract state\n    event fundCreation(uint fundId);\n    event fundContribution(uint messageReceived);\n    event OnGoing(uint fundId);\n    event Closed(uint fundId);\n    \n    //modifier to check if the msg.value is greater than 0\n    modifier paidEnough(uint _price) { require(_price>0); _;}\n\n    //modifier to check if the fund state is OnGoing\n    modifier onGoing(uint _fundId) {\n      require(funds[_fundId].state ==State.onGoing);\n          _;\n      }\n    //modifier to check if the fund state is closed\n    modifier closed(uint _fundId) {\n          require(funds[_fundId].state == State.Closed);\n          _;\n      }\n      /**\n    @dev Modifier to check if the sender is the owner of the fund \n     */\n    modifier onlyOwner(uint _fundId){\n       Fund memory f = funds[_fundId];  \n        require(f.owner == msg.sender);\n        _;\n    }\n\n \n  /** @dev  function creates a new fund\n    * @param _name name of the fund\n    * @param _fundHardCap hard cap upper limit for the fund\n    * @param _benfitiaryAddress benefitiary address of the fund\n    * emits an event with fundId\n  **/\n   function createNewFund(string memory _name, uint _fundHardCap,address payable  _benfitiaryAddress) public \n   {\n    noOfFunds = SafeMath.add(noOfFunds,1);\n    uint fundId = noOfFunds;\n    funds[fundId] = Fund(_name, _fundHardCap, 0, _benfitiaryAddress, State.onGoing,msg.sender);\n    emit fundCreation((fundId));\n\n  }\n\n  /** @dev  payable function that allows users to contribute to a fund\n    * @param _fundId unique id to identify the fund in the mapping funds \n    * whenNotPaused modifier from Pausable contract for implementing emergency stop pattern\n    * emits an event with the new balance\n  **/\n  function contributeToFund(uint _fundId) public payable onGoing(_fundId) paidEnough(msg.value)\n       \n {\n    Fund memory f = funds[_fundId];\n    uint thisfundHardCap = f.fundHardCap;\n    uint thisbalance = f.balance;\n    if(thisbalance<thisfundHardCap){\n      //f.balance = SafeMath.add(thisbalance , msg.value);\n      f.balance =  f.balance+msg.value;\n      f.benfitiaryAddress.transfer(msg.value);\n      emit fundContribution(f.balance);\n   } \n   else{\n     f.state = State.Closed;\n     \n    }\n \n    }\n  /** @dev  get the name of the fund by using unique fundId\n    * @param _fundId unique id to identify the fund in the mapping funds \n    * @return fund name  \n  **/\n   function fundIdToName(uint _fundId) public view returns(string memory) \n  {\n    Fund memory f = funds[_fundId];\n    return(f.name);\n   } \n\n   /** @dev get number of funds \n    * @return noOfFunds  \n  **/\n  function getNoOfFunds() public view returns (uint ) {\n    return(noOfFunds);\n  }\n  \n   /** @dev  view function to get fund details using unqiue _fundId\n    * @param _fundId  unique identifier for the fund\n    * @return name , name of the fund\n    * @return  balance, hard cap upper limit for the fund\n    * @return fundHardCap, current balance fo the fund\n    * @return benfitiaryAddress benefitiary address of the fund\n  **/\n  function fetchFundDetails(uint _fundId) public view returns (string memory, uint , uint , address, State) {\n    Fund memory f  = funds[_fundId];\n    string memory name = f.name;\n    uint bal = f.balance;\n    uint fundHardCap = f.fundHardCap;\n    State state = f.state;\n    address benfitiaryAddress = f.benfitiaryAddress;\n    return (name, fundHardCap, bal, benfitiaryAddress, state);\n  }\n\n  \n\n \n   \n}",
  "sourcePath": "/media/raj/Additionaldrive/truffle_react/contracts/FundFactory.sol",
  "compiler": {
    "name": "solc",
    "version": "0.5.0+commit.1d4f565a.Emscripten.clang"
  },
  "schemaVersion": "3.0.1",
  "updatedAt": "2019-01-28T06:32:40.251Z",
  "devdoc": {
    "methods": {
      "contributeToFund(uint256)": {
        "details": "payable function that allows users to contribute to a fund",
        "params": {
          "_fundId": "unique id to identify the fund in the mapping funds  whenNotPaused modifier from Pausable contract for implementing emergency stop pattern emits an event with the new balance*"
        }
      },
      "createNewFund(string,uint256,address)": {
        "details": "function creates a new fund",
        "params": {
          "_benfitiaryAddress": "benefitiary address of the fund emits an event with fundId*",
          "_fundHardCap": "hard cap upper limit for the fund",
          "_name": "name of the fund"
        }
      },
      "fetchFundDetails(uint256)": {
        "details": "view function to get fund details using unqiue _fundId",
        "params": {
          "_fundId": "unique identifier for the fund"
        },
        "return": "name , name of the fundbalance, hard cap upper limit for the fundfundHardCap, current balance fo the fundbenfitiaryAddress benefitiary address of the fund*"
      },
      "fundIdToName(uint256)": {
        "details": "get the name of the fund by using unique fundId",
        "params": {
          "_fundId": "unique id to identify the fund in the mapping funds "
        },
        "return": "fund name  *"
      },
      "getNoOfFunds()": {
        "details": "get number of funds ",
        "return": "noOfFunds  *"
      },
      "pause()": {
        "details": "called by the owner to pause, triggers stopped state"
      },
      "paused()": {
        "return": "true if the contract is paused, false otherwise."
      },
      "unpause()": {
        "details": "called by the owner to unpause, returns to normal state"
      }
    }
  },
  "userdoc": {
    "methods": {}
  }
}