{
  "contractName": "FundFactory",
  "abi": [
    {
      "constant": true,
      "inputs": [],
      "name": "noOfFunds",
      "outputs": [
        {
          "name": "",
          "type": "uint256"
        }
      ],
      "payable": false,
      "stateMutability": "view",
      "type": "function",
      "signature": "0x61cef63c"
    },
    {
      "constant": true,
      "inputs": [
        {
          "name": "",
          "type": "uint256"
        }
      ],
      "name": "funds",
      "outputs": [
        {
          "name": "name",
          "type": "string"
        },
        {
          "name": "fundHardCap",
          "type": "uint256"
        },
        {
          "name": "balance",
          "type": "uint256"
        },
        {
          "name": "state",
          "type": "uint8"
        },
        {
          "name": "targetAddress",
          "type": "address"
        }
      ],
      "payable": false,
      "stateMutability": "view",
      "type": "function",
      "signature": "0x7b8e8895"
    },
    {
      "anonymous": false,
      "inputs": [
        {
          "indexed": false,
          "name": "message",
          "type": "string"
        }
      ],
      "name": "testEvent",
      "type": "event",
      "signature": "0x4c2aaf95bd72b0b4730a09397fa14d7c339e8b90471d39e1ec89baed0628ed24"
    },
    {
      "anonymous": false,
      "inputs": [
        {
          "indexed": false,
          "name": "name",
          "type": "string"
        },
        {
          "indexed": false,
          "name": "balance",
          "type": "uint256"
        },
        {
          "indexed": false,
          "name": "status",
          "type": "string"
        }
      ],
      "name": "OnGoing",
      "type": "event",
      "signature": "0xc86500ed3bd532aeb2c7ff7f06702798505b119ddde4631a560b171bc3ee8072"
    },
    {
      "anonymous": false,
      "inputs": [
        {
          "indexed": false,
          "name": "name",
          "type": "string"
        },
        {
          "indexed": false,
          "name": "balance",
          "type": "uint256"
        },
        {
          "indexed": false,
          "name": "state",
          "type": "uint8"
        }
      ],
      "name": "Closed",
      "type": "event",
      "signature": "0x20e2fabb8aeb04ba8b63a500dd083c6b6ea42edbd3309c0557b3116cbc035d8a"
    },
    {
      "constant": false,
      "inputs": [
        {
          "name": "_name",
          "type": "string"
        },
        {
          "name": "_fundHardCap",
          "type": "uint256"
        },
        {
          "name": "_targetAddress",
          "type": "address"
        }
      ],
      "name": "createNewFund",
      "outputs": [
        {
          "name": "fundId",
          "type": "uint256"
        }
      ],
      "payable": false,
      "stateMutability": "nonpayable",
      "type": "function",
      "signature": "0x60b1c7e1"
    },
    {
      "constant": false,
      "inputs": [
        {
          "name": "_fundId",
          "type": "uint256"
        }
      ],
      "name": "contributeToFund",
      "outputs": [],
      "payable": true,
      "stateMutability": "payable",
      "type": "function",
      "signature": "0x0b62d30f"
    },
    {
      "constant": true,
      "inputs": [],
      "name": "getAllFundsIds",
      "outputs": [
        {
          "name": "",
          "type": "uint256"
        }
      ],
      "payable": false,
      "stateMutability": "view",
      "type": "function",
      "signature": "0x820e364f"
    },
    {
      "constant": true,
      "inputs": [
        {
          "name": "_fundId",
          "type": "uint256"
        }
      ],
      "name": "fetchFundDetails",
      "outputs": [
        {
          "name": "name",
          "type": "string"
        },
        {
          "name": "fundHardCap",
          "type": "uint256"
        },
        {
          "name": "balance",
          "type": "uint256"
        },
        {
          "name": "state",
          "type": "uint8"
        },
        {
          "name": "targetAddress",
          "type": "address"
        }
      ],
      "payable": false,
      "stateMutability": "view",
      "type": "function",
      "signature": "0x5b61c569"
    },
    {
      "constant": false,
      "inputs": [
        {
          "name": "_fundId",
          "type": "uint256"
        }
      ],
      "name": "checkHardCapReached",
      "outputs": [
        {
          "name": "reached",
          "type": "bool"
        }
      ],
      "payable": false,
      "stateMutability": "nonpayable",
      "type": "function",
      "signature": "0xdc96c769"
    }
  ],
  "bytecode": "0x608060405234801561001057600080fd5b50610c00806100206000396000f3fe608060405260043610610083576000357c0100000000000000000000000000000000000000000000000000000000900463ffffffff1680630b62d30f146100885780635b61c569146100b657806360b1c7e1146101c057806361cef63c146102c65780637b8e8895146102f1578063820e364f146103fb578063dc96c76914610426575b600080fd5b6100b46004803603602081101561009e57600080fd5b8101908080359060200190929190505050610479565b005b3480156100c257600080fd5b506100ef600480360360208110156100d957600080fd5b810190808035906020019092919050505061061c565b604051808060200186815260200185815260200184600181111561010f57fe5b60ff1681526020018373ffffffffffffffffffffffffffffffffffffffff1673ffffffffffffffffffffffffffffffffffffffff168152602001828103825287818151815260200191508051906020019080838360005b83811015610181578082015181840152602081019050610166565b50505050905090810190601f1680156101ae5780820380516001836020036101000a031916815260200191505b50965050505050505060405180910390f35b3480156101cc57600080fd5b506102b0600480360360608110156101e357600080fd5b810190808035906020019064010000000081111561020057600080fd5b82018360208201111561021257600080fd5b8035906020019184600183028401116401000000008311171561023457600080fd5b91908080601f016020809104026020016040519081016040528093929190818152602001838380828437600081840152601f19601f82011690508083019250505050505050919291929080359060200190929190803573ffffffffffffffffffffffffffffffffffffffff16906020019092919050505061073c565b6040518082815260200191505060405180910390f35b3480156102d257600080fd5b506102db610969565b6040518082815260200191505060405180910390f35b3480156102fd57600080fd5b5061032a6004803603602081101561031457600080fd5b810190808035906020019092919050505061096f565b604051808060200186815260200185815260200184600181111561034a57fe5b60ff1681526020018373ffffffffffffffffffffffffffffffffffffffff1673ffffffffffffffffffffffffffffffffffffffff168152602001828103825287818151815260200191508051906020019080838360005b838110156103bc5780820151818401526020810190506103a1565b50505050905090810190601f1680156103e95780820380516001836020036101000a031916815260200191505b50965050505050505060405180910390f35b34801561040757600080fd5b50610410610a6a565b6040518082815260200191505060405180910390f35b34801561043257600080fd5b5061045f6004803603602081101561044957600080fd5b8101908080359060200190929190505050610a73565b604051808215151515815260200191505060405180910390f35b806000600181111561048757fe5b6001600083815260200190815260200160002060030160009054906101000a900460ff1660018111156104b657fe5b1415156104c257600080fd5b346000811115156104d257600080fd5b600060016000858152602001908152602001600020905080600101548160020154101561051057348160020160008282540192505081905550610616565b60018160030160006101000a81548160ff0219169083600181111561053157fe5b02179055507f20e2fabb8aeb04ba8b63a500dd083c6b6ea42edbd3309c0557b3116cbc035d8a8160000182600201546001604051808060200184815260200183600181111561057c57fe5b60ff1681526020018281038252858181546001816001161561010002031660029004815260200191508054600181600116156101000203166002900480156106055780601f106105da57610100808354040283529160200191610605565b820191906000526020600020905b8154815290600101906020018083116105e857829003601f168201915b505094505050505060405180910390a15b50505050565b60606000806000806000600160008881526020019081526020016000209050806000018054600181600116156101000203166002900480601f0160208091040260200160405190810160405280929190818152602001828054600181600116156101000203166002900480156106d35780601f106106a8576101008083540402835291602001916106d3565b820191906000526020600020905b8154815290600101906020018083116106b657829003601f168201915b5050505050955080600201549350806001015494508060030160009054906101000a900460ff1692508060030160019054906101000a900473ffffffffffffffffffffffffffffffffffffffff1691508585858585955095509550955095505091939590929450565b60007f4c2aaf95bd72b0b4730a09397fa14d7c339e8b90471d39e1ec89baed0628ed2484846040516020018083805190602001908083835b6020831015156107995780518252602082019150602081019050602083039250610774565b6001836020036101000a038019825116818451168082178552505050505050905001828152602001925050506040516020818303038152906040526040518080602001828103825283818151815260200191508051906020019080838360005b838110156108145780820151818401526020810190506107f9565b50505050905090810190601f1680156108415780820380516001836020036101000a031916815260200191505b509250505060405180910390a160008081548092919060010191905055905060a060405190810160405280858152602001848152602001600081526020016000600181111561088c57fe5b81526020018373ffffffffffffffffffffffffffffffffffffffff168152506001600083815260200190815260200160002060008201518160000190805190602001906108da929190610b2f565b50602082015181600101556040820151816002015560608201518160030160006101000a81548160ff0219169083600181111561091357fe5b021790555060808201518160030160016101000a81548173ffffffffffffffffffffffffffffffffffffffff021916908373ffffffffffffffffffffffffffffffffffffffff1602179055509050509392505050565b60005481565b6001602052806000526040600020600091509050806000018054600181600116156101000203166002900480601f016020809104026020016040519081016040528092919081815260200182805460018160011615610100020316600290048015610a1b5780601f106109f057610100808354040283529160200191610a1b565b820191906000526020600020905b8154815290600101906020018083116109fe57829003601f168201915b5050505050908060010154908060020154908060030160009054906101000a900460ff16908060030160019054906101000a900473ffffffffffffffffffffffffffffffffffffffff16905085565b60008054905090565b600080600160008481526020019081526020016000209050806001015481600201541015610aa5576000915050610b2a565b600081600201549050600082600201819055508160030160019054906101000a900473ffffffffffffffffffffffffffffffffffffffff1673ffffffffffffffffffffffffffffffffffffffff166108fc829081150290604051600060405180830381858888f19350505050158015610b22573d6000803e3d6000fd5b506001925050505b919050565b828054600181600116156101000203166002900490600052602060002090601f016020900481019282601f10610b7057805160ff1916838001178555610b9e565b82800160010185558215610b9e579182015b82811115610b9d578251825591602001919060010190610b82565b5b509050610bab9190610baf565b5090565b610bd191905b80821115610bcd576000816000905550600101610bb5565b5090565b9056fea165627a7a72305820d3edd45ae822418cff309176dabe641db3b23a9ca68d6ea5c845106f1ed7a1830029",
  "source": "/*\n    This exercise has been updated to use Solidity version 0.5\n    Breaking changes from 0.4 to 0.5 can be found here: \n    https://solidity.readthedocs.io/en/v0.5.0/050-breaking-changes.html\n*/\n\npragma solidity ^0.5.0;\n\ncontract FundFactory {\n\n\n  /* Add a variable called skuCount to track the most recent sku # */\n  /* Add a line that creates a public mapping that maps the SKU (a number) to an Item.\n     Call this mappings items\n  */\nuint public noOfFunds;\n\nmapping (uint => Fund) public funds;\n\n \n enum State  {onGoing, Closed}\n  /* Create a struct named Item.\n    Here, add a name, sku, price, state, seller, and buyer\n    We've left you to figure out what the appropriate types are,\n    if you need help you can ask around :)\n  */\n struct Fund {\n        string name;\n        uint fundHardCap;\n        uint balance;\n        State state;\n        address payable targetAddress;\n    }\n    event testEvent(string message);\n    event OnGoing(string name, uint balance,string status);\n    //event Locked(uint amount);\n    event Closed(string name, uint balance, State state);\n    \n/* Create a modifer that checks if the msg.sender is the owner of the contract */\n\n  //modifier verifyCaller (address _address) { require (msg.sender == _address); _;}\n\n  modifier paidEnough(uint _price) { require(_price>0); _;}\n\n\n  /* For each of the following modifiers, use what you learned about modifiers\n   to give them functionality. For example, the forSale modifier should require\n   that the item with the given sku has the state ForSale. */\n\n  \n  modifier onGoing(uint _fundId) {\n    require(funds[_fundId].state ==State.onGoing);\n        _;\n    }\n\n    modifier closed(uint _fundId) {\n        require(funds[_fundId].state == State.Closed);\n        _;\n    }\n\n \n  \n  \n    function createNewFund(string memory _name, uint _fundHardCap,address payable _targetAddress) public returns(uint fundId)\n   {\n         emit testEvent(string(abi.encodePacked(_name,_fundHardCap)));\n\n     fundId = noOfFunds++;\n    \n    funds[fundId] = Fund(_name, _fundHardCap, 0, State.onGoing,_targetAddress);\n  }\n\n  /* Add a keyword so the function can be paid. This function should transfer money\n    to the seller, set the buyer as the person who called this transaction, and set the state\n    to Sold. Be careful, this function should use 3 modifiers to check if the item is for sale,\n    if the buyer paid enough, and check the value after the function is called to make sure the buyer is\n    refunded any excess ether sent. Remember to call the event associated with this function!*/\n\n  function contributeToFund(uint _fundId) public payable onGoing(_fundId) paidEnough(msg.value) \n {\n    Fund storage f = funds[_fundId];\n   if(f.balance<f.fundHardCap){\n      f.balance += msg.value;\n   } \n   else{\n     f.state = State.Closed;\n        emit Closed(f.name,f.balance,State.Closed);\n\n        \n   }\n   \n    }\n  function getAllFundsIds() public view returns (uint ) {\n    return(noOfFunds);\n  }\n\n  /* We have these functions completed so we can run tests, just ignore it :) */\n  function fetchFundDetails(uint _fundId) public view returns (string memory name, uint fundHardCap, uint balance, State state, address targetAddress) {\n    Fund storage f  = funds[_fundId];\n    name = f.name;\n    balance = f.balance;\n    fundHardCap = f.fundHardCap;\n    state = f.state;\n    targetAddress = f.targetAddress;\n    return (name, fundHardCap, balance, state, targetAddress);\n  }\n   function checkHardCapReached(uint _fundId) public returns (bool reached) {\n        Fund storage f = funds[_fundId];\n        if (f.balance < f.fundHardCap)\n            return false;\n        uint amount = f.balance;\n        f.balance = 0;\n        f.targetAddress.transfer(amount);\n        return true;\n    }\n}",
  "sourcePath": "/media/raj/Additionaldrive/truffle_react/contracts/FundFactory.sol",
  "compiler": {
    "name": "solc",
    "version": "0.5.0+commit.1d4f565a.Emscripten.clang"
  },
  "schemaVersion": "3.0.1",
  "updatedAt": "2019-01-25T21:44:48.719Z",
  "devdoc": {
    "methods": {}
  },
  "userdoc": {
    "methods": {}
  }
}