{
  "contractName": "FundFactory",
  "abi": [
    {
      "constant": true,
      "inputs": [],
      "name": "noOfFunds",
      "outputs": [
        {
          "name": "",
          "type": "uint256"
        }
      ],
      "payable": false,
      "stateMutability": "view",
      "type": "function",
      "signature": "0x61cef63c"
    },
    {
      "constant": true,
      "inputs": [
        {
          "name": "",
          "type": "uint256"
        }
      ],
      "name": "funds",
      "outputs": [
        {
          "name": "name",
          "type": "string"
        },
        {
          "name": "fundHardCap",
          "type": "uint256"
        },
        {
          "name": "balance",
          "type": "uint256"
        },
        {
          "name": "benfitiaryAddress",
          "type": "address"
        },
        {
          "name": "state",
          "type": "uint8"
        }
      ],
      "payable": false,
      "stateMutability": "view",
      "type": "function",
      "signature": "0x7b8e8895"
    },
    {
      "anonymous": false,
      "inputs": [
        {
          "indexed": false,
          "name": "fundId",
          "type": "uint256"
        }
      ],
      "name": "fundCreation",
      "type": "event",
      "signature": "0x4771e80052e6e5f0f71cde214274e0f59da183f995064e7dfd52f6f03ce7d0f9"
    },
    {
      "anonymous": false,
      "inputs": [
        {
          "indexed": false,
          "name": "messageReceived",
          "type": "uint256"
        }
      ],
      "name": "fundContribution",
      "type": "event",
      "signature": "0x2806e53c6cc387c88ad89c10b32d7ed063ba2aa223397b2c76b34f29bdbd9c23"
    },
    {
      "anonymous": false,
      "inputs": [
        {
          "indexed": false,
          "name": "fundId",
          "type": "uint256"
        }
      ],
      "name": "OnGoing",
      "type": "event",
      "signature": "0x5f1d2093163c2654dd9c69a585dab6a817ef360a2204a1fb49d12329d0479969"
    },
    {
      "anonymous": false,
      "inputs": [
        {
          "indexed": false,
          "name": "fundId",
          "type": "uint256"
        }
      ],
      "name": "Closed",
      "type": "event",
      "signature": "0x6cc09e7b5c3e49861ebe8f6867e1618fbfc14c8d0e968fde37c4243ca02a6f83"
    },
    {
      "constant": false,
      "inputs": [
        {
          "name": "_name",
          "type": "string"
        },
        {
          "name": "_fundHardCap",
          "type": "uint256"
        },
        {
          "name": "_benfitiaryAddress",
          "type": "address"
        }
      ],
      "name": "createNewFund",
      "outputs": [],
      "payable": false,
      "stateMutability": "nonpayable",
      "type": "function",
      "signature": "0x60b1c7e1"
    },
    {
      "constant": false,
      "inputs": [
        {
          "name": "_fundId",
          "type": "uint256"
        }
      ],
      "name": "contributeToFund",
      "outputs": [],
      "payable": true,
      "stateMutability": "payable",
      "type": "function",
      "signature": "0x0b62d30f"
    },
    {
      "constant": true,
      "inputs": [
        {
          "name": "_fundId",
          "type": "uint256"
        }
      ],
      "name": "fundIdToName",
      "outputs": [
        {
          "name": "",
          "type": "string"
        }
      ],
      "payable": false,
      "stateMutability": "view",
      "type": "function",
      "signature": "0xf7c56a1c"
    },
    {
      "constant": true,
      "inputs": [],
      "name": "getNoOfFunds",
      "outputs": [
        {
          "name": "",
          "type": "uint256"
        }
      ],
      "payable": false,
      "stateMutability": "view",
      "type": "function",
      "signature": "0x221f1647"
    },
    {
      "constant": true,
      "inputs": [
        {
          "name": "_fundId",
          "type": "uint256"
        }
      ],
      "name": "fetchFundDetails",
      "outputs": [
        {
          "name": "",
          "type": "string"
        },
        {
          "name": "",
          "type": "uint256"
        },
        {
          "name": "",
          "type": "uint256"
        },
        {
          "name": "",
          "type": "address"
        },
        {
          "name": "",
          "type": "uint8"
        }
      ],
      "payable": false,
      "stateMutability": "view",
      "type": "function",
      "signature": "0x5b61c569"
    }
  ],
  "bytecode": "0x608060405234801561001057600080fd5b50610e51806100206000396000f3fe608060405260043610610083576000357c0100000000000000000000000000000000000000000000000000000000900463ffffffff1680630b62d30f14610088578063221f1647146100b65780635b61c569146100e157806360b1c7e1146101eb57806361cef63c146102dd5780637b8e889514610308578063f7c56a1c14610412575b600080fd5b6100b46004803603602081101561009e57600080fd5b81019080803590602001909291905050506104c6565b005b3480156100c257600080fd5b506100cb610789565b6040518082815260200191505060405180910390f35b3480156100ed57600080fd5b5061011a6004803603602081101561010457600080fd5b8101908080359060200190929190505050610792565b60405180806020018681526020018581526020018473ffffffffffffffffffffffffffffffffffffffff1673ffffffffffffffffffffffffffffffffffffffff16815260200183600181111561016c57fe5b60ff168152602001828103825287818151815260200191508051906020019080838360005b838110156101ac578082015181840152602081019050610191565b50505050905090810190601f1680156101d95780820380516001836020036101000a031916815260200191505b50965050505050505060405180910390f35b3480156101f757600080fd5b506102db6004803603606081101561020e57600080fd5b810190808035906020019064010000000081111561022b57600080fd5b82018360208201111561023d57600080fd5b8035906020019184600183028401116401000000008311171561025f57600080fd5b91908080601f016020809104026020016040519081016040528093929190818152602001838380828437600081840152601f19601f82011690508083019250505050505050919291929080359060200190929190803573ffffffffffffffffffffffffffffffffffffffff169060200190929190505050610947565b005b3480156102e957600080fd5b506102f2610a9f565b6040518082815260200191505060405180910390f35b34801561031457600080fd5b506103416004803603602081101561032b57600080fd5b8101908080359060200190929190505050610aa5565b60405180806020018681526020018581526020018473ffffffffffffffffffffffffffffffffffffffff1673ffffffffffffffffffffffffffffffffffffffff16815260200183600181111561039357fe5b60ff168152602001828103825287818151815260200191508051906020019080838360005b838110156103d35780820151818401526020810190506103b8565b50505050905090810190601f1680156104005780820380516001836020036101000a031916815260200191505b50965050505050505060405180910390f35b34801561041e57600080fd5b5061044b6004803603602081101561043557600080fd5b8101908080359060200190929190505050610ba0565b6040518080602001828103825283818151815260200191508051906020019080838360005b8381101561048b578082015181840152602081019050610470565b50505050905090810190601f1680156104b85780820380516001836020036101000a031916815260200191505b509250505060405180910390f35b80600060018111156104d457fe5b6001600083815260200190815260200160002060030160149054906101000a900460ff16600181111561050357fe5b14151561050f57600080fd5b3460008111151561051f57600080fd5b610527610d2f565b6001600085815260200190815260200160002060a06040519081016040529081600082018054600181600116156101000203166002900480601f0160208091040260200160405190810160405280929190818152602001828054600181600116156101000203166002900480156105df5780601f106105b4576101008083540402835291602001916105df565b820191906000526020600020905b8154815290600101906020018083116105c257829003601f168201915b5050505050815260200160018201548152602001600282015481526020016003820160009054906101000a900473ffffffffffffffffffffffffffffffffffffffff1673ffffffffffffffffffffffffffffffffffffffff1673ffffffffffffffffffffffffffffffffffffffff1681526020016003820160149054906101000a900460ff16600181111561067057fe5b600181111561067b57fe5b8152505090506000600160008681526020019081526020016000206001015490506000600160008781526020019081526020016000206002015490508181101561075d57826060015173ffffffffffffffffffffffffffffffffffffffff166108fc349081150290604051600060405180830381858888f19350505050158015610709573d6000803e3d6000fd5b50610718836040015134610d11565b8360400181815250507f2806e53c6cc387c88ad89c10b32d7ed063ba2aa223397b2c76b34f29bdbd9c23346040518082815260200191505060405180910390a1610781565b60018360800190600181111561076f57fe5b9081600181111561077c57fe5b815250505b505050505050565b60008054905090565b60606000806000806107a2610d2f565b6001600088815260200190815260200160002060a06040519081016040529081600082018054600181600116156101000203166002900480601f01602080910402602001604051908101604052809291908181526020018280546001816001161561010002031660029004801561085a5780601f1061082f5761010080835404028352916020019161085a565b820191906000526020600020905b81548152906001019060200180831161083d57829003601f168201915b5050505050815260200160018201548152602001600282015481526020016003820160009054906101000a900473ffffffffffffffffffffffffffffffffffffffff1673ffffffffffffffffffffffffffffffffffffffff1673ffffffffffffffffffffffffffffffffffffffff1681526020016003820160149054906101000a900460ff1660018111156108eb57fe5b60018111156108f657fe5b81525050905060608160000151905060008260400151905060008360200151905060008460800151905060008560600151905084838583859a509a509a509a509a5050505050505091939590929450565b6109546000546001610d11565b60008190555060008054905060a060405190810160405280858152602001848152602001600081526020018373ffffffffffffffffffffffffffffffffffffffff168152602001600060018111156109a857fe5b8152506001600083815260200190815260200160002060008201518160000190805190602001906109da929190610d80565b50602082015181600101556040820151816002015560608201518160030160006101000a81548173ffffffffffffffffffffffffffffffffffffffff021916908373ffffffffffffffffffffffffffffffffffffffff16021790555060808201518160030160146101000a81548160ff02191690836001811115610a5a57fe5b02179055509050507f4771e80052e6e5f0f71cde214274e0f59da183f995064e7dfd52f6f03ce7d0f9816040518082815260200191505060405180910390a150505050565b60005481565b6001602052806000526040600020600091509050806000018054600181600116156101000203166002900480601f016020809104026020016040519081016040528092919081815260200182805460018160011615610100020316600290048015610b515780601f10610b2657610100808354040283529160200191610b51565b820191906000526020600020905b815481529060010190602001808311610b3457829003601f168201915b5050505050908060010154908060020154908060030160009054906101000a900473ffffffffffffffffffffffffffffffffffffffff16908060030160149054906101000a900460ff16905085565b6060610baa610d2f565b6001600084815260200190815260200160002060a06040519081016040529081600082018054600181600116156101000203166002900480601f016020809104026020016040519081016040528092919081815260200182805460018160011615610100020316600290048015610c625780601f10610c3757610100808354040283529160200191610c62565b820191906000526020600020905b815481529060010190602001808311610c4557829003601f168201915b5050505050815260200160018201548152602001600282015481526020016003820160009054906101000a900473ffffffffffffffffffffffffffffffffffffffff1673ffffffffffffffffffffffffffffffffffffffff1673ffffffffffffffffffffffffffffffffffffffff1681526020016003820160149054906101000a900460ff166001811115610cf357fe5b6001811115610cfe57fe5b8152505090508060000151915050919050565b6000808284019050838110151515610d2557fe5b8091505092915050565b60a060405190810160405280606081526020016000815260200160008152602001600073ffffffffffffffffffffffffffffffffffffffff16815260200160006001811115610d7a57fe5b81525090565b828054600181600116156101000203166002900490600052602060002090601f016020900481019282601f10610dc157805160ff1916838001178555610def565b82800160010185558215610def579182015b82811115610dee578251825591602001919060010190610dd3565b5b509050610dfc9190610e00565b5090565b610e2291905b80821115610e1e576000816000905550600101610e06565b5090565b9056fea165627a7a72305820980090622fd2fc7bc92e6cefef57ce32a0f2e0885b88d0798f74ed9c758ef3ef0029",
  "source": "/*\n    This exercise has been updated to use Solidity version 0.5\n    Breaking changes from 0.4 to 0.5 can be found here: \n    https://solidity.readthedocs.io/en/v0.5.0/050-breaking-changes.html\n*/\n\npragma solidity ^0.5.0;\nimport \"./SafeMath.sol\";\n\ncontract FundFactory {\n\n\n  /* variable called noOfFunds to track the most total list of funds # */\n  \n  uint public noOfFunds;\n  /* funds creates a public mapping that maps the fundId (a number) to a Fund.\n  */\n  mapping (uint => Fund) public funds;\n\n  /* reflect  the state of a fund using State enum*/\n  enum State  {onGoing, Closed}\n\n  /**  struct used to strore list of funds, created one for each new fund\n    * name, name of the fund\n    * fundHardCap, hard cap upper limit for the fund\n    * balance, current balance fo the fund\n    *benfitiaryAddress benefitiary address of the fund\n  **/\n    struct Fund {\n        string name;\n        uint fundHardCap;\n        uint balance;\n        address payable benfitiaryAddress;\n        State state;\n    }\n    //events below fired for each function call that change contract state\n    event fundCreation(uint fundId);\n    event fundContribution(uint messageReceived);\n    event OnGoing(uint fundId);\n    event Closed(uint fundId);\n    \n    //modifier to check if the msg.value is greater than 0\n    modifier paidEnough(uint _price) { require(_price>0); _;}\n\n    //modifier to check if the fund state is OnGoing\n    modifier onGoing(uint _fundId) {\n      require(funds[_fundId].state ==State.onGoing);\n          _;\n      }\n    //modifier to check if the fund state is closed\n    modifier closed(uint _fundId) {\n          require(funds[_fundId].state == State.Closed);\n          _;\n      }\n\n \n  /** @dev  function creates a new fund\n    * @param _name name of the fund\n    * @param _fundHardCap hard cap upper limit for the fund\n    * @param _benfitiaryAddress benefitiary address of the fund\n    * emits an event with fundId\n  **/\n   function createNewFund(string memory _name, uint _fundHardCap,address payable  _benfitiaryAddress) public \n   {\n    noOfFunds = SafeMath.add(noOfFunds,1);\n    uint fundId = noOfFunds;\n    funds[fundId] = Fund(_name, _fundHardCap, 0, _benfitiaryAddress, State.onGoing);\n    emit fundCreation((fundId));\n\n  }\n\n  /** @dev  payable function that allows users to contribute to a fund\n    * @param _fundId unique id to identify the fund in the mapping funds \n    * emits an event with the new balance\n  **/\n  function contributeToFund(uint _fundId) public payable onGoing(_fundId) paidEnough(msg.value) \n  //checkAndLimitHardCap(_fundId)\n \n {\n    Fund memory f = funds[_fundId];\n    uint thisfundHardCap = funds[_fundId].fundHardCap;\n    uint thisbalance = funds[_fundId].balance;\n    if(thisbalance<thisfundHardCap){\n      f.benfitiaryAddress.transfer(msg.value);\n      f.balance = SafeMath.add(f.balance , msg.value);\n      emit fundContribution(msg.value);\n   } \n   else{\n     f.state = State.Closed;\n     \n    }\n   \n    }\n  /** @dev  get the name of the fund by using unique fundId\n    * @param _fundId unique id to identify the fund in the mapping funds \n    * @return fund name  \n  **/\n   function fundIdToName(uint _fundId) public view returns(string memory) \n  {\n    Fund memory f = funds[_fundId];\n    return(f.name);\n   } \n\n   /** @dev get number of funds \n    * @return noOfFunds  \n  **/\n  function getNoOfFunds() public view returns (uint ) {\n    return(noOfFunds);\n  }\n  \n   /** @dev  view function to get fund details using unqiue _fundId\n    * @param _fundId  unique identifier for the fund\n    * @return name , name of the fund\n    * @return  fundHardCap, hard cap upper limit for the fund\n    * @return balance, current balance fo the fund\n    * @return benfitiaryAddress benefitiary address of the fund\n  **/\n  function fetchFundDetails(uint _fundId) public view returns (string memory, uint , uint , address, State) {\n    Fund memory f  = funds[_fundId];\n    string memory name = f.name;\n    uint balance = f.balance;\n    uint fundHardCap = f.fundHardCap;\n    State state = f.state;\n    address benfitiaryAddress = f.benfitiaryAddress;\n    return (name, fundHardCap, balance, benfitiaryAddress, state);\n  }\n \n \n   \n}",
  "sourcePath": "/media/raj/Additionaldrive/truffle_react/contracts/FundFactory.sol",
  "compiler": {
    "name": "solc",
    "version": "0.5.0+commit.1d4f565a.Emscripten.clang"
  },
  "schemaVersion": "3.0.1",
  "updatedAt": "2019-01-28T00:51:33.639Z",
  "devdoc": {
    "methods": {
      "contributeToFund(uint256)": {
        "details": "payable function that allows users to contribute to a fund",
        "params": {
          "_fundId": "unique id to identify the fund in the mapping funds  emits an event with the new balance*"
        }
      },
      "createNewFund(string,uint256,address)": {
        "details": "function creates a new fund",
        "params": {
          "_benfitiaryAddress": "benefitiary address of the fund emits an event with fundId*",
          "_fundHardCap": "hard cap upper limit for the fund",
          "_name": "name of the fund"
        }
      },
      "fetchFundDetails(uint256)": {
        "details": "view function to get fund details using unqiue _fundId",
        "params": {
          "_fundId": "unique identifier for the fund"
        },
        "return": "name , name of the fundfundHardCap, hard cap upper limit for the fundbalance, current balance fo the fundbenfitiaryAddress benefitiary address of the fund*"
      },
      "fundIdToName(uint256)": {
        "details": "get the name of the fund by using unique fundId",
        "params": {
          "_fundId": "unique id to identify the fund in the mapping funds "
        },
        "return": "fund name  *"
      },
      "getNoOfFunds()": {
        "details": "get number of funds ",
        "return": "noOfFunds  *"
      }
    }
  },
  "userdoc": {
    "methods": {}
  }
}