{
  "contractName": "FundFactory",
  "abi": [
    {
      "constant": true,
      "inputs": [],
      "name": "noOfFunds",
      "outputs": [
        {
          "name": "",
          "type": "uint256"
        }
      ],
      "payable": false,
      "stateMutability": "view",
      "type": "function",
      "signature": "0x61cef63c"
    },
    {
      "constant": true,
      "inputs": [
        {
          "name": "",
          "type": "uint256"
        }
      ],
      "name": "funds",
      "outputs": [
        {
          "name": "name",
          "type": "string"
        },
        {
          "name": "fundHardCap",
          "type": "uint256"
        },
        {
          "name": "balance",
          "type": "uint256"
        },
        {
          "name": "targetAddress",
          "type": "address"
        }
      ],
      "payable": false,
      "stateMutability": "view",
      "type": "function",
      "signature": "0x7b8e8895"
    },
    {
      "anonymous": false,
      "inputs": [
        {
          "indexed": false,
          "name": "fundId",
          "type": "uint256"
        }
      ],
      "name": "fundCreation",
      "type": "event",
      "signature": "0x4771e80052e6e5f0f71cde214274e0f59da183f995064e7dfd52f6f03ce7d0f9"
    },
    {
      "anonymous": false,
      "inputs": [
        {
          "indexed": false,
          "name": "messageReceived",
          "type": "uint256"
        }
      ],
      "name": "fundContribution",
      "type": "event",
      "signature": "0x2806e53c6cc387c88ad89c10b32d7ed063ba2aa223397b2c76b34f29bdbd9c23"
    },
    {
      "anonymous": false,
      "inputs": [
        {
          "indexed": false,
          "name": "name",
          "type": "string"
        },
        {
          "indexed": false,
          "name": "balance",
          "type": "uint256"
        },
        {
          "indexed": false,
          "name": "status",
          "type": "string"
        }
      ],
      "name": "OnGoing",
      "type": "event",
      "signature": "0xc86500ed3bd532aeb2c7ff7f06702798505b119ddde4631a560b171bc3ee8072"
    },
    {
      "anonymous": false,
      "inputs": [
        {
          "indexed": false,
          "name": "name",
          "type": "string"
        },
        {
          "indexed": false,
          "name": "balance",
          "type": "uint256"
        },
        {
          "indexed": false,
          "name": "state",
          "type": "uint8"
        }
      ],
      "name": "Closed",
      "type": "event",
      "signature": "0x20e2fabb8aeb04ba8b63a500dd083c6b6ea42edbd3309c0557b3116cbc035d8a"
    },
    {
      "constant": false,
      "inputs": [
        {
          "name": "_name",
          "type": "string"
        },
        {
          "name": "_fundHardCap",
          "type": "uint256"
        },
        {
          "name": "_targetAddress",
          "type": "address"
        }
      ],
      "name": "createNewFund",
      "outputs": [],
      "payable": true,
      "stateMutability": "payable",
      "type": "function",
      "signature": "0x60b1c7e1"
    },
    {
      "constant": false,
      "inputs": [
        {
          "name": "_fundId",
          "type": "uint256"
        }
      ],
      "name": "contributeToFund",
      "outputs": [],
      "payable": true,
      "stateMutability": "payable",
      "type": "function",
      "signature": "0x0b62d30f"
    },
    {
      "constant": true,
      "inputs": [],
      "name": "getAllFundsIds",
      "outputs": [
        {
          "name": "",
          "type": "uint256"
        }
      ],
      "payable": false,
      "stateMutability": "view",
      "type": "function",
      "signature": "0x820e364f"
    },
    {
      "constant": true,
      "inputs": [
        {
          "name": "_fundId",
          "type": "uint256"
        }
      ],
      "name": "fetchFundDetails",
      "outputs": [
        {
          "name": "",
          "type": "string"
        },
        {
          "name": "",
          "type": "uint256"
        },
        {
          "name": "",
          "type": "uint256"
        },
        {
          "name": "",
          "type": "address"
        }
      ],
      "payable": false,
      "stateMutability": "view",
      "type": "function",
      "signature": "0x5b61c569"
    },
    {
      "constant": true,
      "inputs": [
        {
          "name": "_fundId",
          "type": "uint256"
        }
      ],
      "name": "checkHardCapReached",
      "outputs": [
        {
          "name": "",
          "type": "bool"
        }
      ],
      "payable": false,
      "stateMutability": "view",
      "type": "function",
      "signature": "0xdc96c769"
    }
  ],
  "bytecode": "0x608060405234801561001057600080fd5b50610c00806100206000396000f3fe608060405260043610610083576000357c0100000000000000000000000000000000000000000000000000000000900463ffffffff1680630b62d30f146100885780635b61c569146100b657806360b1c7e1146101ab57806361cef63c146102905780637b8e8895146102bb578063820e364f146103b0578063dc96c769146103db575b600080fd5b6100b46004803603602081101561009e57600080fd5b810190808035906020019092919050505061042e565b005b3480156100c257600080fd5b506100ef600480360360208110156100d957600080fd5b810190808035906020019092919050505061060d565b60405180806020018581526020018481526020018373ffffffffffffffffffffffffffffffffffffffff1673ffffffffffffffffffffffffffffffffffffffff168152602001828103825286818151815260200191508051906020019080838360005b8381101561016d578082015181840152602081019050610152565b50505050905090810190601f16801561019a5780820380516001836020036101000a031916815260200191505b509550505050505060405180910390f35b61028e600480360360608110156101c157600080fd5b81019080803590602001906401000000008111156101de57600080fd5b8201836020820111156101f057600080fd5b8035906020019184600183028401116401000000008311171561021257600080fd5b91908080601f016020809104026020016040519081016040528093929190818152602001838380828437600081840152601f19601f82011690508083019250505050505050919291929080359060200190929190803573ffffffffffffffffffffffffffffffffffffffff169060200190929190505050610785565b005b34801561029c57600080fd5b506102a561089d565b6040518082815260200191505060405180910390f35b3480156102c757600080fd5b506102f4600480360360208110156102de57600080fd5b81019080803590602001909291905050506108a3565b60405180806020018581526020018481526020018373ffffffffffffffffffffffffffffffffffffffff1673ffffffffffffffffffffffffffffffffffffffff168152602001828103825286818151815260200191508051906020019080838360005b83811015610372578082015181840152602081019050610357565b50505050905090810190601f16801561039f5780820380516001836020036101000a031916815260200191505b509550505050505060405180910390f35b3480156103bc57600080fd5b506103c561098b565b6040518082815260200191505060405180910390f35b3480156103e757600080fd5b50610414600480360360208110156103fe57600080fd5b8101908080359060200190929190505050610994565b604051808215151515815260200191505060405180910390f35b3460008111151561043e57600080fd5b610446610af0565b6001600084815260200190815260200160002060806040519081016040529081600082018054600181600116156101000203166002900480601f0160208091040260200160405190810160405280929190818152602001828054600181600116156101000203166002900480156104fe5780601f106104d3576101008083540402835291602001916104fe565b820191906000526020600020905b8154815290600101906020018083116104e157829003601f168201915b5050505050815260200160018201548152602001600282015481526020016003820160009054906101000a900473ffffffffffffffffffffffffffffffffffffffff1673ffffffffffffffffffffffffffffffffffffffff1673ffffffffffffffffffffffffffffffffffffffff168152505090508060200151816040015110156105cf57348160400181815101915081815250507f2806e53c6cc387c88ad89c10b32d7ed063ba2aa223397b2c76b34f29bdbd9c23346040518082815260200191505060405180910390a1610608565b7f2806e53c6cc387c88ad89c10b32d7ed063ba2aa223397b2c76b34f29bdbd9c2360006040518082815260200191505060405180910390a15b505050565b6060600080600061061c610af0565b6001600087815260200190815260200160002060806040519081016040529081600082018054600181600116156101000203166002900480601f0160208091040260200160405190810160405280929190818152602001828054600181600116156101000203166002900480156106d45780601f106106a9576101008083540402835291602001916106d4565b820191906000526020600020905b8154815290600101906020018083116106b757829003601f168201915b5050505050815260200160018201548152602001600282015481526020016003820160009054906101000a900473ffffffffffffffffffffffffffffffffffffffff1673ffffffffffffffffffffffffffffffffffffffff1673ffffffffffffffffffffffffffffffffffffffff1681525050905060608160000151905060008260400151905060008360200151905060008460600151905083828483985098509850985050505050509193509193565b6000806000815480929190600101919050559050608060405190810160405280858152602001848152602001600081526020018373ffffffffffffffffffffffffffffffffffffffff16815250600160008381526020019081526020016000206000820151816000019080519060200190610801929190610b2f565b50602082015181600101556040820151816002015560608201518160030160006101000a81548173ffffffffffffffffffffffffffffffffffffffff021916908373ffffffffffffffffffffffffffffffffffffffff1602179055509050507f4771e80052e6e5f0f71cde214274e0f59da183f995064e7dfd52f6f03ce7d0f9816040518082815260200191505060405180910390a150505050565b60005481565b6001602052806000526040600020600091509050806000018054600181600116156101000203166002900480601f01602080910402602001604051908101604052809291908181526020018280546001816001161561010002031660029004801561094f5780601f106109245761010080835404028352916020019161094f565b820191906000526020600020905b81548152906001019060200180831161093257829003601f168201915b5050505050908060010154908060020154908060030160009054906101000a900473ffffffffffffffffffffffffffffffffffffffff16905084565b60008054905090565b600061099e610af0565b6001600084815260200190815260200160002060806040519081016040529081600082018054600181600116156101000203166002900480601f016020809104026020016040519081016040528092919081815260200182805460018160011615610100020316600290048015610a565780601f10610a2b57610100808354040283529160200191610a56565b820191906000526020600020905b815481529060010190602001808311610a3957829003601f168201915b5050505050815260200160018201548152602001600282015481526020016003820160009054906101000a900473ffffffffffffffffffffffffffffffffffffffff1673ffffffffffffffffffffffffffffffffffffffff1673ffffffffffffffffffffffffffffffffffffffff16815250509050806020015181604001511015610ae5576000915050610aeb565b60019150505b919050565b608060405190810160405280606081526020016000815260200160008152602001600073ffffffffffffffffffffffffffffffffffffffff1681525090565b828054600181600116156101000203166002900490600052602060002090601f016020900481019282601f10610b7057805160ff1916838001178555610b9e565b82800160010185558215610b9e579182015b82811115610b9d578251825591602001919060010190610b82565b5b509050610bab9190610baf565b5090565b610bd191905b80821115610bcd576000816000905550600101610bb5565b5090565b9056fea165627a7a723058206d03eeba1fc28eef38c10034ad3689f5644cb55520890814b7f53e39e047bb930029",
  "source": "/*\n    This exercise has been updated to use Solidity version 0.5\n    Breaking changes from 0.4 to 0.5 can be found here: \n    https://solidity.readthedocs.io/en/v0.5.0/050-breaking-changes.html\n*/\n\npragma solidity ^0.5.0;\n\ncontract FundFactory {\n\n\n  /* Add a variable called skuCount to track the most recent sku # */\n  /* Add a line that creates a public mapping that maps the SKU (a number) to an Item.\n     Call this mappings items\n  */\n  uint public noOfFunds;\n\n  mapping (uint => Fund) public funds;\n\n \n enum State  {onGoing, Closed}\n  /* Create a struct named Item.\n    Here, add a name, sku, price, state, seller, and buyer\n    We've left you to figure out what the appropriate types are,\n    if you need help you can ask around :)\n  */\n struct Fund {\n        string name;\n        uint fundHardCap;\n        uint balance;\n        address payable targetAddress;\n    }\n    event fundCreation(uint fundId);\n    event fundContribution(uint messageReceived);\n\n    event OnGoing(string name, uint balance,string status);\n    //event Locked(uint amount);\n    event Closed(string name, uint balance, State state);\n    \n/* Create a modifer that checks if the msg.sender is the owner of the contract */\n\n  //modifier verifyCaller (address _address) { require (msg.sender == _address); _;}\n\n  modifier paidEnough(uint _price) { require(_price>0); _;}\n\n\n  /* For each of the following modifiers, use what you learned about modifiers\n   to give them functionality. For example, the forSale modifier should require\n   that the item with the given sku has the state ForSale. */\n\n  \n  /*modifier onGoing(uint _fundId) {\n    require(funds[_fundId].state ==State.onGoing);\n        _;\n    }\n\n    modifier closed(uint _fundId) {\n        require(funds[_fundId].state == State.Closed);\n        _;\n    }\n*/\n \n  \n  \n    function createNewFund(string memory _name, uint _fundHardCap,address payable  _targetAddress) public payable\n   {\n         \n\n    uint fundId = noOfFunds++;\n    funds[fundId] = Fund(_name, _fundHardCap, 0, _targetAddress);\n    emit fundCreation((fundId));\n\n  }\n\n  /* Add a keyword so the function can be paid. This function should transfer money\n    to the seller, set the buyer as the person who called this transaction, and set the state\n    to Sold. Be careful, this function should use 3 modifiers to check if the item is for sale,\n    if the buyer paid enough, and check the value after the function is called to make sure the buyer is\n    refunded any excess ether sent. Remember to call the event associated with this function!*/\n\n  function contributeToFund(uint _fundId) public payable paidEnough(msg.value) \n {\n    Fund memory f = funds[_fundId];\n   if(f.balance<f.fundHardCap){\n      f.balance += msg.value;\n      emit fundContribution(msg.value);\n\n   } \n   else{\n     //f.state = State.Closed;\n      emit fundContribution(0);\n    }\n   \n    }\n  function getAllFundsIds() public view returns (uint ) {\n    return(noOfFunds);\n  }\n\n  /* We have these functions completed so we can run tests, just ignore it :) */\n  function fetchFundDetails(uint _fundId) public view returns (string memory, uint , uint , address ) {\n    Fund memory f  = funds[_fundId];\n    string memory name = f.name;\n    uint balance = f.balance;\n    uint fundHardCap = f.fundHardCap;\n    //state = f.state;\n    address targetAddress = f.targetAddress;\n    return (name, fundHardCap, balance, targetAddress);\n  }\n   function checkHardCapReached(uint _fundId) public view returns (bool) {\n        Fund memory f = funds[_fundId];\n        if (f.balance < f.fundHardCap)    \n            return false;\n        else \n          return true;\n       /* uint amount = f.balance;\n        f.balance = 0;\n        f.targetAddress.transfer(amount);\n        return true; */\n    }\n}",
  "sourcePath": "/media/raj/Additionaldrive/truffle_react/contracts/FundFactory.sol",
  "compiler": {
    "name": "solc",
    "version": "0.5.0+commit.1d4f565a.Emscripten.clang"
  },
  "schemaVersion": "3.0.1",
  "updatedAt": "2019-01-27T17:46:18.159Z",
  "devdoc": {
    "methods": {}
  },
  "userdoc": {
    "methods": {}
  }
}