{
  "contractName": "FundFactory",
  "abi": [
    {
      "constant": false,
      "inputs": [],
      "name": "unpause",
      "outputs": [],
      "payable": false,
      "stateMutability": "nonpayable",
      "type": "function",
      "signature": "0x3f4ba83a"
    },
    {
      "constant": true,
      "inputs": [
        {
          "name": "account",
          "type": "address"
        }
      ],
      "name": "isPauser",
      "outputs": [
        {
          "name": "",
          "type": "bool"
        }
      ],
      "payable": false,
      "stateMutability": "view",
      "type": "function",
      "signature": "0x46fbf68e"
    },
    {
      "constant": true,
      "inputs": [],
      "name": "paused",
      "outputs": [
        {
          "name": "",
          "type": "bool"
        }
      ],
      "payable": false,
      "stateMutability": "view",
      "type": "function",
      "signature": "0x5c975abb"
    },
    {
      "constant": true,
      "inputs": [],
      "name": "noOfFunds",
      "outputs": [
        {
          "name": "",
          "type": "uint256"
        }
      ],
      "payable": false,
      "stateMutability": "view",
      "type": "function",
      "signature": "0x61cef63c"
    },
    {
      "constant": false,
      "inputs": [],
      "name": "renouncePauser",
      "outputs": [],
      "payable": false,
      "stateMutability": "nonpayable",
      "type": "function",
      "signature": "0x6ef8d66d"
    },
    {
      "constant": true,
      "inputs": [
        {
          "name": "",
          "type": "uint256"
        }
      ],
      "name": "funds",
      "outputs": [
        {
          "name": "name",
          "type": "string"
        },
        {
          "name": "fundHardCap",
          "type": "uint256"
        },
        {
          "name": "balance",
          "type": "uint256"
        },
        {
          "name": "benfitiaryAddress",
          "type": "address"
        },
        {
          "name": "state",
          "type": "uint8"
        },
        {
          "name": "owner",
          "type": "address"
        }
      ],
      "payable": false,
      "stateMutability": "view",
      "type": "function",
      "signature": "0x7b8e8895"
    },
    {
      "constant": false,
      "inputs": [
        {
          "name": "account",
          "type": "address"
        }
      ],
      "name": "addPauser",
      "outputs": [],
      "payable": false,
      "stateMutability": "nonpayable",
      "type": "function",
      "signature": "0x82dc1ec4"
    },
    {
      "constant": false,
      "inputs": [],
      "name": "pause",
      "outputs": [],
      "payable": false,
      "stateMutability": "nonpayable",
      "type": "function",
      "signature": "0x8456cb59"
    },
    {
      "anonymous": false,
      "inputs": [
        {
          "indexed": false,
          "name": "fundId",
          "type": "uint256"
        }
      ],
      "name": "fundCreation",
      "type": "event",
      "signature": "0x4771e80052e6e5f0f71cde214274e0f59da183f995064e7dfd52f6f03ce7d0f9"
    },
    {
      "anonymous": false,
      "inputs": [
        {
          "indexed": false,
          "name": "messageReceived",
          "type": "uint256"
        }
      ],
      "name": "fundContribution",
      "type": "event",
      "signature": "0x2806e53c6cc387c88ad89c10b32d7ed063ba2aa223397b2c76b34f29bdbd9c23"
    },
    {
      "anonymous": false,
      "inputs": [
        {
          "indexed": false,
          "name": "fundId",
          "type": "uint256"
        }
      ],
      "name": "OnGoing",
      "type": "event",
      "signature": "0x5f1d2093163c2654dd9c69a585dab6a817ef360a2204a1fb49d12329d0479969"
    },
    {
      "anonymous": false,
      "inputs": [
        {
          "indexed": false,
          "name": "fundId",
          "type": "uint256"
        }
      ],
      "name": "Closed",
      "type": "event",
      "signature": "0x6cc09e7b5c3e49861ebe8f6867e1618fbfc14c8d0e968fde37c4243ca02a6f83"
    },
    {
      "anonymous": false,
      "inputs": [
        {
          "indexed": false,
          "name": "account",
          "type": "address"
        }
      ],
      "name": "Paused",
      "type": "event",
      "signature": "0x62e78cea01bee320cd4e420270b5ea74000d11b0c9f74754ebdbfc544b05a258"
    },
    {
      "anonymous": false,
      "inputs": [
        {
          "indexed": false,
          "name": "account",
          "type": "address"
        }
      ],
      "name": "Unpaused",
      "type": "event",
      "signature": "0x5db9ee0a495bf2e6ff9c91a7834c1ba4fdd244a5e8aa4e537bd38aeae4b073aa"
    },
    {
      "anonymous": false,
      "inputs": [
        {
          "indexed": true,
          "name": "account",
          "type": "address"
        }
      ],
      "name": "PauserAdded",
      "type": "event",
      "signature": "0x6719d08c1888103bea251a4ed56406bd0c3e69723c8a1686e017e7bbe159b6f8"
    },
    {
      "anonymous": false,
      "inputs": [
        {
          "indexed": true,
          "name": "account",
          "type": "address"
        }
      ],
      "name": "PauserRemoved",
      "type": "event",
      "signature": "0xcd265ebaf09df2871cc7bd4133404a235ba12eff2041bb89d9c714a2621c7c7e"
    },
    {
      "constant": false,
      "inputs": [
        {
          "name": "_name",
          "type": "string"
        },
        {
          "name": "_fundHardCap",
          "type": "uint256"
        },
        {
          "name": "_benfitiaryAddress",
          "type": "address"
        }
      ],
      "name": "createNewFund",
      "outputs": [],
      "payable": false,
      "stateMutability": "nonpayable",
      "type": "function",
      "signature": "0x60b1c7e1"
    },
    {
      "constant": false,
      "inputs": [
        {
          "name": "_fundId",
          "type": "uint256"
        }
      ],
      "name": "contributeToFund",
      "outputs": [],
      "payable": true,
      "stateMutability": "payable",
      "type": "function",
      "signature": "0x0b62d30f"
    },
    {
      "constant": true,
      "inputs": [
        {
          "name": "_fundId",
          "type": "uint256"
        }
      ],
      "name": "fundIdToName",
      "outputs": [
        {
          "name": "",
          "type": "string"
        }
      ],
      "payable": false,
      "stateMutability": "view",
      "type": "function",
      "signature": "0xf7c56a1c"
    },
    {
      "constant": true,
      "inputs": [],
      "name": "getNoOfFunds",
      "outputs": [
        {
          "name": "",
          "type": "uint256"
        }
      ],
      "payable": false,
      "stateMutability": "view",
      "type": "function",
      "signature": "0x221f1647"
    },
    {
      "constant": true,
      "inputs": [
        {
          "name": "_fundId",
          "type": "uint256"
        }
      ],
      "name": "fetchFundDetails",
      "outputs": [
        {
          "name": "",
          "type": "string"
        },
        {
          "name": "",
          "type": "uint256"
        },
        {
          "name": "",
          "type": "uint256"
        },
        {
          "name": "",
          "type": "address"
        },
        {
          "name": "",
          "type": "uint8"
        }
      ],
      "payable": false,
      "stateMutability": "view",
      "type": "function",
      "signature": "0x5b61c569"
    },
    {
      "constant": false,
      "inputs": [
        {
          "name": "_fundId",
          "type": "uint256"
        }
      ],
      "name": "toggleContributionActive",
      "outputs": [],
      "payable": false,
      "stateMutability": "nonpayable",
      "type": "function",
      "signature": "0xcecd45d7"
    }
  ],
  "bytecode": "0x60806040526000600460006101000a81548160ff02191690831515021790555062000039336200005a640100000000026401000000009004565b6000600160006101000a81548160ff0219169083151502179055506200021c565b6200007e816000620000c46401000000000262001446179091906401000000009004565b8073ffffffffffffffffffffffffffffffffffffffff167f6719d08c1888103bea251a4ed56406bd0c3e69723c8a1686e017e7bbe159b6f860405160405180910390a250565b600073ffffffffffffffffffffffffffffffffffffffff168173ffffffffffffffffffffffffffffffffffffffff16141515156200010157600080fd5b6200011c828262000187640100000000026401000000009004565b1515156200012957600080fd5b60018260000160008373ffffffffffffffffffffffffffffffffffffffff1673ffffffffffffffffffffffffffffffffffffffff16815260200190815260200160002060006101000a81548160ff0219169083151502179055505050565b60008073ffffffffffffffffffffffffffffffffffffffff168273ffffffffffffffffffffffffffffffffffffffff1614151515620001c557600080fd5b8260000160008373ffffffffffffffffffffffffffffffffffffffff1673ffffffffffffffffffffffffffffffffffffffff16815260200190815260200160002060009054906101000a900460ff16905092915050565b611635806200022c6000396000f3fe6080604052600436106100d0576000357c0100000000000000000000000000000000000000000000000000000000900463ffffffff1680630b62d30f146100d5578063221f1647146101035780633f4ba83a1461012e57806346fbf68e146101455780635b61c569146101ae5780635c975abb146102b857806360b1c7e1146102e757806361cef63c146103d95780636ef8d66d146104045780637b8e88951461041b57806382dc1ec4146105585780638456cb59146105a9578063cecd45d7146105c0578063f7c56a1c146105fb575b600080fd5b610101600480360360208110156100eb57600080fd5b81019080803590602001909291905050506106af565b005b34801561010f57600080fd5b506101186109bb565b6040518082815260200191505060405180910390f35b34801561013a57600080fd5b506101436109c5565b005b34801561015157600080fd5b506101946004803603602081101561016857600080fd5b81019080803573ffffffffffffffffffffffffffffffffffffffff169060200190929190505050610a74565b604051808215151515815260200191505060405180910390f35b3480156101ba57600080fd5b506101e7600480360360208110156101d157600080fd5b8101908080359060200190929190505050610a91565b60405180806020018681526020018581526020018473ffffffffffffffffffffffffffffffffffffffff1673ffffffffffffffffffffffffffffffffffffffff16815260200183600181111561023957fe5b60ff168152602001828103825287818151815260200191508051906020019080838360005b8381101561027957808201518184015260208101905061025e565b50505050905090810190601f1680156102a65780820380516001836020036101000a031916815260200191505b50965050505050505060405180910390f35b3480156102c457600080fd5b506102cd610bba565b604051808215151515815260200191505060405180910390f35b3480156102f357600080fd5b506103d76004803603606081101561030a57600080fd5b810190808035906020019064010000000081111561032757600080fd5b82018360208201111561033957600080fd5b8035906020019184600183028401116401000000008311171561035b57600080fd5b91908080601f016020809104026020016040519081016040528093929190818152602001838380828437600081840152601f19601f82011690508083019250505050505050919291929080359060200190929190803573ffffffffffffffffffffffffffffffffffffffff169060200190929190505050610bd1565b005b3480156103e557600080fd5b506103ee610d92565b6040518082815260200191505060405180910390f35b34801561041057600080fd5b50610419610d98565b005b34801561042757600080fd5b506104546004803603602081101561043e57600080fd5b8101908080359060200190929190505050610da3565b60405180806020018781526020018681526020018573ffffffffffffffffffffffffffffffffffffffff1673ffffffffffffffffffffffffffffffffffffffff1681526020018460018111156104a657fe5b60ff1681526020018373ffffffffffffffffffffffffffffffffffffffff1673ffffffffffffffffffffffffffffffffffffffff168152602001828103825288818151815260200191508051906020019080838360005b838110156105185780820151818401526020810190506104fd565b50505050905090810190601f1680156105455780820380516001836020036101000a031916815260200191505b5097505050505050505060405180910390f35b34801561056457600080fd5b506105a76004803603602081101561057b57600080fd5b81019080803573ffffffffffffffffffffffffffffffffffffffff169060200190929190505050610ec4565b005b3480156105b557600080fd5b506105be610ee4565b005b3480156105cc57600080fd5b506105f9600480360360208110156105e357600080fd5b8101908080359060200190929190505050610f93565b005b34801561060757600080fd5b506106346004803603602081101561061e57600080fd5b810190808035906020019092919050505061106a565b6040518080602001828103825283818151815260200191508051906020019080838360005b83811015610674578082015181840152602081019050610659565b50505050905090810190601f1680156106a15780820380516001836020036101000a031916815260200191505b509250505060405180910390f35b80600060018111156106bd57fe5b6003600083815260200190815260200160002060030160149054906101000a900460ff1660018111156106ec57fe5b1415156106f857600080fd5b3460008111151561070857600080fd5b600460009054906101000a900460ff1615156109b6576107266114f6565b6003600085815260200190815260200160002060c06040519081016040529081600082018054600181600116156101000203166002900480601f0160208091040260200160405190810160405280929190818152602001828054600181600116156101000203166002900480156107de5780601f106107b3576101008083540402835291602001916107de565b820191906000526020600020905b8154815290600101906020018083116107c157829003601f168201915b5050505050815260200160018201548152602001600282015481526020016003820160009054906101000a900473ffffffffffffffffffffffffffffffffffffffff1673ffffffffffffffffffffffffffffffffffffffff1673ffffffffffffffffffffffffffffffffffffffff1681526020016003820160149054906101000a900460ff16600181111561086f57fe5b600181111561087a57fe5b81526020016004820160009054906101000a900473ffffffffffffffffffffffffffffffffffffffff1673ffffffffffffffffffffffffffffffffffffffff1673ffffffffffffffffffffffffffffffffffffffff168152505090506000816020015190506000826040015190508181101561098e576108fa8134611231565b836040018181525050826060015173ffffffffffffffffffffffffffffffffffffffff166108fc349081150290604051600060405180830381858888f1935050505015801561094d573d6000803e3d6000fd5b507f2806e53c6cc387c88ad89c10b32d7ed063ba2aa223397b2c76b34f29bdbd9c2383604001516040518082815260200191505060405180910390a16109b2565b6001836080019060018111156109a057fe5b908160018111156109ad57fe5b815250505b5050505b505050565b6000600254905090565b6109ce33610a74565b15156109d957600080fd5b600160009054906101000a900460ff1615156109f457600080fd5b6000600160006101000a81548160ff0219169083151502179055507f5db9ee0a495bf2e6ff9c91a7834c1ba4fdd244a5e8aa4e537bd38aeae4b073aa33604051808273ffffffffffffffffffffffffffffffffffffffff1673ffffffffffffffffffffffffffffffffffffffff16815260200191505060405180910390a1565b6000610a8a82600061124f90919063ffffffff16565b9050919050565b606060008060008060006003600088815260200190815260200160002090506060816000018054600181600116156101000203166002900480601f016020809104026020016040519081016040528092919081815260200182805460018160011615610100020316600290048015610b4a5780601f10610b1f57610100808354040283529160200191610b4a565b820191906000526020600020905b815481529060010190602001808311610b2d57829003601f168201915b5050505050905060008260010154905060008360030160149054906101000a900460ff16905060008460030160009054906101000a900473ffffffffffffffffffffffffffffffffffffffff16905083838660020154838599509950995099509950505050505091939590929450565b6000600160009054906101000a900460ff16905090565b610bde6002546001611231565b60028190555060006002549050600080905060c0604051908101604052808681526020018581526020018281526020018473ffffffffffffffffffffffffffffffffffffffff16815260200160006001811115610c3757fe5b81526020013373ffffffffffffffffffffffffffffffffffffffff16815250600360008481526020019081526020016000206000820151816000019080519060200190610c85929190611564565b50602082015181600101556040820151816002015560608201518160030160006101000a81548173ffffffffffffffffffffffffffffffffffffffff021916908373ffffffffffffffffffffffffffffffffffffffff16021790555060808201518160030160146101000a81548160ff02191690836001811115610d0557fe5b021790555060a08201518160040160006101000a81548173ffffffffffffffffffffffffffffffffffffffff021916908373ffffffffffffffffffffffffffffffffffffffff1602179055509050507f4771e80052e6e5f0f71cde214274e0f59da183f995064e7dfd52f6f03ce7d0f9826040518082815260200191505060405180910390a15050505050565b60025481565b610da1336112e3565b565b6003602052806000526040600020600091509050806000018054600181600116156101000203166002900480601f016020809104026020016040519081016040528092919081815260200182805460018160011615610100020316600290048015610e4f5780601f10610e2457610100808354040283529160200191610e4f565b820191906000526020600020905b815481529060010190602001808311610e3257829003601f168201915b5050505050908060010154908060020154908060030160009054906101000a900473ffffffffffffffffffffffffffffffffffffffff16908060030160149054906101000a900460ff16908060040160009054906101000a900473ffffffffffffffffffffffffffffffffffffffff16905086565b610ecd33610a74565b1515610ed857600080fd5b610ee18161133d565b50565b610eed33610a74565b1515610ef857600080fd5b600160009054906101000a900460ff16151515610f1457600080fd5b60018060006101000a81548160ff0219169083151502179055507f62e78cea01bee320cd4e420270b5ea74000d11b0c9f74754ebdbfc544b05a25833604051808273ffffffffffffffffffffffffffffffffffffffff1673ffffffffffffffffffffffffffffffffffffffff16815260200191505060405180910390a1565b806003600082815260200190815260200160002060040160009054906101000a900473ffffffffffffffffffffffffffffffffffffffff1673ffffffffffffffffffffffffffffffffffffffff163373ffffffffffffffffffffffffffffffffffffffff1614151561100457600080fd5b600460009054906101000a900460ff1615600460006101000a81548160ff02191690831515021790555060016003600084815260200190815260200160002060030160146101000a81548160ff0219169083600181111561106157fe5b02179055505050565b60606110746114f6565b6003600084815260200190815260200160002060c06040519081016040529081600082018054600181600116156101000203166002900480601f01602080910402602001604051908101604052809291908181526020018280546001816001161561010002031660029004801561112c5780601f106111015761010080835404028352916020019161112c565b820191906000526020600020905b81548152906001019060200180831161110f57829003601f168201915b5050505050815260200160018201548152602001600282015481526020016003820160009054906101000a900473ffffffffffffffffffffffffffffffffffffffff1673ffffffffffffffffffffffffffffffffffffffff1673ffffffffffffffffffffffffffffffffffffffff1681526020016003820160149054906101000a900460ff1660018111156111bd57fe5b60018111156111c857fe5b81526020016004820160009054906101000a900473ffffffffffffffffffffffffffffffffffffffff1673ffffffffffffffffffffffffffffffffffffffff1673ffffffffffffffffffffffffffffffffffffffff168152505090508060000151915050919050565b600080828401905083811015151561124557fe5b8091505092915050565b60008073ffffffffffffffffffffffffffffffffffffffff168273ffffffffffffffffffffffffffffffffffffffff161415151561128c57600080fd5b8260000160008373ffffffffffffffffffffffffffffffffffffffff1673ffffffffffffffffffffffffffffffffffffffff16815260200190815260200160002060009054906101000a900460ff16905092915050565b6112f781600061139790919063ffffffff16565b8073ffffffffffffffffffffffffffffffffffffffff167fcd265ebaf09df2871cc7bd4133404a235ba12eff2041bb89d9c714a2621c7c7e60405160405180910390a250565b61135181600061144690919063ffffffff16565b8073ffffffffffffffffffffffffffffffffffffffff167f6719d08c1888103bea251a4ed56406bd0c3e69723c8a1686e017e7bbe159b6f860405160405180910390a250565b600073ffffffffffffffffffffffffffffffffffffffff168173ffffffffffffffffffffffffffffffffffffffff16141515156113d357600080fd5b6113dd828261124f565b15156113e857600080fd5b60008260000160008373ffffffffffffffffffffffffffffffffffffffff1673ffffffffffffffffffffffffffffffffffffffff16815260200190815260200160002060006101000a81548160ff0219169083151502179055505050565b600073ffffffffffffffffffffffffffffffffffffffff168173ffffffffffffffffffffffffffffffffffffffff161415151561148257600080fd5b61148c828261124f565b15151561149857600080fd5b60018260000160008373ffffffffffffffffffffffffffffffffffffffff1673ffffffffffffffffffffffffffffffffffffffff16815260200190815260200160002060006101000a81548160ff0219169083151502179055505050565b60c060405190810160405280606081526020016000815260200160008152602001600073ffffffffffffffffffffffffffffffffffffffff1681526020016000600181111561154157fe5b8152602001600073ffffffffffffffffffffffffffffffffffffffff1681525090565b828054600181600116156101000203166002900490600052602060002090601f016020900481019282601f106115a557805160ff19168380011785556115d3565b828001600101855582156115d3579182015b828111156115d25782518255916020019190600101906115b7565b5b5090506115e091906115e4565b5090565b61160691905b808211156116025760008160009055506001016115ea565b5090565b9056fea165627a7a72305820ec2b4c77889fa3478919f49f32e7c35923ca22b658a17917e0a053d20ed36ab30029",
  "source": "/*\n    This exercise has been updated to use Solidity version 0.5\n    Breaking changes from 0.4 to 0.5 can be found here: \n    https://solidity.readthedocs.io/en/v0.5.0/050-breaking-changes.html\n*/\n\npragma solidity ^0.5.0;\n\nimport \"./SafeMath.sol\";\nimport \"../client/node_modules/openzeppelin-solidity/contracts/lifecycle/Pausable.sol\";\n//import  \"../client/node_modules/web3\" as web3;\n    \n\ncontract FundFactory is Pausable {\n\n\n  /* variable called noOfFunds to track the most total list of funds # */\n  uint public noOfFunds;\n  /* funds creates a public mapping that maps the fundId (a number) to a Fund.\n  */\n  mapping (uint => Fund) public funds;\n\n  /* reflect  the state of a fund using State enum*/\n  enum State  {onGoing, Closed}\n  //flag for circuit breaker\n  bool private stopped = false;\n  //address private owner;\n\n  /**  struct used to strore list of funds, created one for each new fund\n    * name, name of the fund\n    * fundHardCap, hard cap upper limit for the fund\n    * balance, current balance fo the fund\n    *benfitiaryAddress benefitiary address of the fund\n  **/\n    struct Fund {\n        string name;\n        uint fundHardCap;\n        uint256 balance;\n        address payable benfitiaryAddress;\n        State state;\n        address owner;\n    }\n    //events below fired for each function call that change contract state\n    event fundCreation(uint fundId);\n    event fundContribution(uint256 messageReceived);\n    event OnGoing(uint fundId);\n    event Closed(uint fundId);\n    \n    //check if the person changing the circuit breaker flag is the fund creator \n    modifier isFundCreator(uint _fundId) {\n    require(msg.sender == funds[_fundId].owner);\n    _;\n    }\n    //contribution to fund can be stopped by the creator of the fund \n    modifier stopInEmergency { if (!stopped) _; }\n\n    \n\n    //modifier to check if the msg.value is greater than 0\n    modifier paidEnough(uint _price) { require(_price>0); _;}\n\n    //modifier to check if the fund state is OnGoing\n    modifier onGoing(uint _fundId) {\n      require(funds[_fundId].state ==State.onGoing);\n          _;\n      }\n    //modifier to check if the fund state is closed\n    modifier closed(uint _fundId) {\n          require(funds[_fundId].state == State.Closed);\n          _;\n      }\n      /**\n    @dev Modifier to check if the sender is the owner of the fund \n     */\n    modifier onlyOwner(uint _fundId){\n       Fund memory f = funds[_fundId];  \n        require(f.owner == msg.sender);\n        _;\n    }\n\n \n  /** @dev  function creates a new fund\n    * @param _name name of the fund\n    * @param _fundHardCap hard cap upper limit for the fund\n    * @param _benfitiaryAddress benefitiary address of the fund\n    * emits an event with fundId\n  **/\n   function createNewFund(string memory _name, uint _fundHardCap,address payable  _benfitiaryAddress) public \n   {\n    noOfFunds = SafeMath.add(noOfFunds,1);\n    uint fundId = noOfFunds;\n    uint256 balance = 0;\n    funds[fundId] = Fund(_name, _fundHardCap, balance, _benfitiaryAddress, State.onGoing,msg.sender);\n    emit fundCreation((fundId));\n\n  }\n\n  /** @dev  payable function that allows users to contribute to a fund\n    * @param _fundId unique id to identify the fund in the mapping funds \n    * whenNotPaused modifier from Pausable contract for implementing emergency stop pattern\n    * emits an event with the new balance\n  **/\n  function contributeToFund(uint _fundId) public payable onGoing(_fundId) paidEnough(msg.value) stopInEmergency\n       \n {\n    Fund memory f = funds[_fundId];\n    uint thisfundHardCap = f.fundHardCap;\n    uint256 thisbalance = f.balance;\n    if(thisbalance<thisfundHardCap){\n      f.balance = SafeMath.add(thisbalance , msg.value);\n      f.benfitiaryAddress.transfer(msg.value);\n      emit fundContribution(f.balance);\n   } \n   else{\n     f.state = State.Closed;\n     \n    }\n \n    }\n  /** @dev  get the name of the fund by using unique fundId\n    * @param _fundId unique id to identify the fund in the mapping funds \n    * @return fund name  \n  **/\n   function fundIdToName(uint _fundId) public view returns(string memory) \n  {\n    Fund memory f = funds[_fundId];\n    return(f.name);\n   } \n\n   /** @dev get number of funds \n    * @return noOfFunds  \n  **/\n  function getNoOfFunds() public view returns (uint ) {\n    return(noOfFunds);\n  }\n  \n   /** @dev  view function to get fund details using unqiue _fundId\n    * @param _fundId  unique identifier for the fund\n    * @return name , name of the fund\n    * @return  balance, hard cap upper limit for the fund\n    * @return fundHardCap, current balance fo the fund\n    * @return benfitiaryAddress benefitiary address of the fund\n  **/\n  function fetchFundDetails(uint _fundId) public view returns (string memory, uint , uint256 , address, State) {\n    Fund storage f  = funds[_fundId];\n    string memory name = f.name;\n    uint fundHardCap = f.fundHardCap;\n    State state = f.state;\n    address benfitiaryAddress = f.benfitiaryAddress;\n    return (name, fundHardCap, f.balance, benfitiaryAddress, state);\n  }\n\n  /** @dev  Circuit breaker function to stop contribution to a  fund , can only be called by the \n            fund creator , sets the stopped flag to true and changes funds state to Closed\n    * @param _fundId  unique identifier for the fund\n  **/\n  function toggleContributionActive(uint _fundId) isFundCreator(_fundId) public {\n    stopped = !stopped;\n    funds[_fundId].state = State.Closed;\n\n  }\n\n\n \n   \n}",
  "sourcePath": "/media/raj/Additionaldrive/truffle_react/contracts/FundFactory.sol",
  "compiler": {
    "name": "solc",
    "version": "0.5.0+commit.1d4f565a.Emscripten.clang"
  },
  "schemaVersion": "3.0.1",
  "updatedAt": "2019-01-29T01:28:17.214Z",
  "devdoc": {
    "methods": {
      "contributeToFund(uint256)": {
        "details": "payable function that allows users to contribute to a fund",
        "params": {
          "_fundId": "unique id to identify the fund in the mapping funds  whenNotPaused modifier from Pausable contract for implementing emergency stop pattern emits an event with the new balance*"
        }
      },
      "createNewFund(string,uint256,address)": {
        "details": "function creates a new fund",
        "params": {
          "_benfitiaryAddress": "benefitiary address of the fund emits an event with fundId*",
          "_fundHardCap": "hard cap upper limit for the fund",
          "_name": "name of the fund"
        }
      },
      "fetchFundDetails(uint256)": {
        "details": "view function to get fund details using unqiue _fundId",
        "params": {
          "_fundId": "unique identifier for the fund"
        },
        "return": "name , name of the fundbalance, hard cap upper limit for the fundfundHardCap, current balance fo the fundbenfitiaryAddress benefitiary address of the fund*"
      },
      "fundIdToName(uint256)": {
        "details": "get the name of the fund by using unique fundId",
        "params": {
          "_fundId": "unique id to identify the fund in the mapping funds "
        },
        "return": "fund name  *"
      },
      "getNoOfFunds()": {
        "details": "get number of funds ",
        "return": "noOfFunds  *"
      },
      "pause()": {
        "details": "called by the owner to pause, triggers stopped state"
      },
      "paused()": {
        "return": "true if the contract is paused, false otherwise."
      },
      "toggleContributionActive(uint256)": {
        "details": "Circuit breaker function to stop contribution to a  fund , can only be called by the  fund creator , sets the stopped flag to true and changes funds state to Closed",
        "params": {
          "_fundId": "unique identifier for the fund*"
        }
      },
      "unpause()": {
        "details": "called by the owner to unpause, returns to normal state"
      }
    }
  },
  "userdoc": {
    "methods": {}
  }
}