{
  "contractName": "FundFactory",
  "abi": [
    {
      "constant": true,
      "inputs": [],
      "name": "noOfFunds",
      "outputs": [
        {
          "name": "",
          "type": "uint256"
        }
      ],
      "payable": false,
      "stateMutability": "view",
      "type": "function",
      "signature": "0x61cef63c"
    },
    {
      "constant": true,
      "inputs": [
        {
          "name": "",
          "type": "uint256"
        }
      ],
      "name": "funds",
      "outputs": [
        {
          "name": "name",
          "type": "string"
        },
        {
          "name": "fundHardCap",
          "type": "uint256"
        },
        {
          "name": "balance",
          "type": "uint256"
        },
        {
          "name": "benfitiaryAddress",
          "type": "address"
        }
      ],
      "payable": false,
      "stateMutability": "view",
      "type": "function",
      "signature": "0x7b8e8895"
    },
    {
      "anonymous": false,
      "inputs": [
        {
          "indexed": false,
          "name": "fundId",
          "type": "uint256"
        }
      ],
      "name": "fundCreation",
      "type": "event",
      "signature": "0x4771e80052e6e5f0f71cde214274e0f59da183f995064e7dfd52f6f03ce7d0f9"
    },
    {
      "anonymous": false,
      "inputs": [
        {
          "indexed": false,
          "name": "messageReceived",
          "type": "uint256"
        }
      ],
      "name": "fundContribution",
      "type": "event",
      "signature": "0x2806e53c6cc387c88ad89c10b32d7ed063ba2aa223397b2c76b34f29bdbd9c23"
    },
    {
      "anonymous": false,
      "inputs": [
        {
          "indexed": false,
          "name": "name",
          "type": "string"
        },
        {
          "indexed": false,
          "name": "balance",
          "type": "uint256"
        },
        {
          "indexed": false,
          "name": "status",
          "type": "string"
        }
      ],
      "name": "OnGoing",
      "type": "event",
      "signature": "0xc86500ed3bd532aeb2c7ff7f06702798505b119ddde4631a560b171bc3ee8072"
    },
    {
      "anonymous": false,
      "inputs": [
        {
          "indexed": false,
          "name": "name",
          "type": "string"
        },
        {
          "indexed": false,
          "name": "balance",
          "type": "uint256"
        },
        {
          "indexed": false,
          "name": "state",
          "type": "uint8"
        }
      ],
      "name": "Closed",
      "type": "event",
      "signature": "0x20e2fabb8aeb04ba8b63a500dd083c6b6ea42edbd3309c0557b3116cbc035d8a"
    },
    {
      "constant": false,
      "inputs": [
        {
          "name": "_name",
          "type": "string"
        },
        {
          "name": "_fundHardCap",
          "type": "uint256"
        },
        {
          "name": "_benfitiaryAddress",
          "type": "address"
        }
      ],
      "name": "createNewFund",
      "outputs": [],
      "payable": false,
      "stateMutability": "nonpayable",
      "type": "function",
      "signature": "0x60b1c7e1"
    },
    {
      "constant": false,
      "inputs": [
        {
          "name": "_fundId",
          "type": "uint256"
        }
      ],
      "name": "contributeToFund",
      "outputs": [],
      "payable": true,
      "stateMutability": "payable",
      "type": "function",
      "signature": "0x0b62d30f"
    },
    {
      "constant": true,
      "inputs": [
        {
          "name": "_fundId",
          "type": "uint256"
        }
      ],
      "name": "fundIdToName",
      "outputs": [
        {
          "name": "",
          "type": "string"
        }
      ],
      "payable": false,
      "stateMutability": "view",
      "type": "function",
      "signature": "0xf7c56a1c"
    },
    {
      "constant": true,
      "inputs": [],
      "name": "getNoOfFunds",
      "outputs": [
        {
          "name": "",
          "type": "uint256"
        }
      ],
      "payable": false,
      "stateMutability": "view",
      "type": "function",
      "signature": "0x221f1647"
    },
    {
      "constant": true,
      "inputs": [
        {
          "name": "_fundId",
          "type": "uint256"
        }
      ],
      "name": "fetchFundDetails",
      "outputs": [
        {
          "name": "",
          "type": "string"
        },
        {
          "name": "",
          "type": "uint256"
        },
        {
          "name": "",
          "type": "uint256"
        },
        {
          "name": "",
          "type": "address"
        }
      ],
      "payable": false,
      "stateMutability": "view",
      "type": "function",
      "signature": "0x5b61c569"
    },
    {
      "constant": true,
      "inputs": [
        {
          "name": "_fundId",
          "type": "uint256"
        }
      ],
      "name": "checkHardCapReached",
      "outputs": [
        {
          "name": "",
          "type": "bool"
        }
      ],
      "payable": false,
      "stateMutability": "view",
      "type": "function",
      "signature": "0xdc96c769"
    }
  ],
  "bytecode": "0x608060405234801561001057600080fd5b50610e39806100206000396000f3fe60806040526004361061008e576000357c0100000000000000000000000000000000000000000000000000000000900463ffffffff1680630b62d30f14610093578063221f1647146100c15780635b61c569146100ec57806360b1c7e1146101e157806361cef63c146102d35780637b8e8895146102fe578063dc96c769146103f3578063f7c56a1c14610446575b600080fd5b6100bf600480360360208110156100a957600080fd5b81019080803590602001909291905050506104fa565b005b3480156100cd57600080fd5b506100d66106e4565b6040518082815260200191505060405180910390f35b3480156100f857600080fd5b506101256004803603602081101561010f57600080fd5b81019080803590602001909291905050506106ed565b60405180806020018581526020018481526020018373ffffffffffffffffffffffffffffffffffffffff1673ffffffffffffffffffffffffffffffffffffffff168152602001828103825286818151815260200191508051906020019080838360005b838110156101a3578082015181840152602081019050610188565b50505050905090810190601f1680156101d05780820380516001836020036101000a031916815260200191505b509550505050505060405180910390f35b3480156101ed57600080fd5b506102d16004803603606081101561020457600080fd5b810190808035906020019064010000000081111561022157600080fd5b82018360208201111561023357600080fd5b8035906020019184600183028401116401000000008311171561025557600080fd5b91908080601f016020809104026020016040519081016040528093929190818152602001838380828437600081840152601f19601f82011690508083019250505050505050919291929080359060200190929190803573ffffffffffffffffffffffffffffffffffffffff169060200190929190505050610865565b005b3480156102df57600080fd5b506102e861097d565b6040518082815260200191505060405180910390f35b34801561030a57600080fd5b506103376004803603602081101561032157600080fd5b8101908080359060200190929190505050610983565b60405180806020018581526020018481526020018373ffffffffffffffffffffffffffffffffffffffff1673ffffffffffffffffffffffffffffffffffffffff168152602001828103825286818151815260200191508051906020019080838360005b838110156103b557808201518184015260208101905061039a565b50505050905090810190601f1680156103e25780820380516001836020036101000a031916815260200191505b509550505050505060405180910390f35b3480156103ff57600080fd5b5061042c6004803603602081101561041657600080fd5b8101908080359060200190929190505050610a6b565b604051808215151515815260200191505060405180910390f35b34801561045257600080fd5b5061047f6004803603602081101561046957600080fd5b8101908080359060200190929190505050610bc7565b6040518080602001828103825283818151815260200191508051906020019080838360005b838110156104bf5780820151818401526020810190506104a4565b50505050905090810190601f1680156104ec5780820380516001836020036101000a031916815260200191505b509250505060405180910390f35b3460008111151561050a57600080fd5b610512610d29565b6001600084815260200190815260200160002060806040519081016040529081600082018054600181600116156101000203166002900480601f0160208091040260200160405190810160405280929190818152602001828054600181600116156101000203166002900480156105ca5780601f1061059f576101008083540402835291602001916105ca565b820191906000526020600020905b8154815290600101906020018083116105ad57829003601f168201915b5050505050815260200160018201548152602001600282015481526020016003820160009054906101000a900473ffffffffffffffffffffffffffffffffffffffff1673ffffffffffffffffffffffffffffffffffffffff1673ffffffffffffffffffffffffffffffffffffffff168152505090508060200151816040015110156106a65761065d816040015134610d0b565b8160400181815250507f2806e53c6cc387c88ad89c10b32d7ed063ba2aa223397b2c76b34f29bdbd9c2381604001516040518082815260200191505060405180910390a16106df565b7f2806e53c6cc387c88ad89c10b32d7ed063ba2aa223397b2c76b34f29bdbd9c2360006040518082815260200191505060405180910390a15b505050565b60008054905090565b606060008060006106fc610d29565b6001600087815260200190815260200160002060806040519081016040529081600082018054600181600116156101000203166002900480601f0160208091040260200160405190810160405280929190818152602001828054600181600116156101000203166002900480156107b45780601f10610789576101008083540402835291602001916107b4565b820191906000526020600020905b81548152906001019060200180831161079757829003601f168201915b5050505050815260200160018201548152602001600282015481526020016003820160009054906101000a900473ffffffffffffffffffffffffffffffffffffffff1673ffffffffffffffffffffffffffffffffffffffff1673ffffffffffffffffffffffffffffffffffffffff1681525050905060608160000151905060008260400151905060008360200151905060008460600151905083828483985098509850985050505050509193509193565b6000806000815480929190600101919050559050608060405190810160405280858152602001848152602001600081526020018373ffffffffffffffffffffffffffffffffffffffff168152506001600083815260200190815260200160002060008201518160000190805190602001906108e1929190610d68565b50602082015181600101556040820151816002015560608201518160030160006101000a81548173ffffffffffffffffffffffffffffffffffffffff021916908373ffffffffffffffffffffffffffffffffffffffff1602179055509050507f4771e80052e6e5f0f71cde214274e0f59da183f995064e7dfd52f6f03ce7d0f9816040518082815260200191505060405180910390a150505050565b60005481565b6001602052806000526040600020600091509050806000018054600181600116156101000203166002900480601f016020809104026020016040519081016040528092919081815260200182805460018160011615610100020316600290048015610a2f5780601f10610a0457610100808354040283529160200191610a2f565b820191906000526020600020905b815481529060010190602001808311610a1257829003601f168201915b5050505050908060010154908060020154908060030160009054906101000a900473ffffffffffffffffffffffffffffffffffffffff16905084565b6000610a75610d29565b6001600084815260200190815260200160002060806040519081016040529081600082018054600181600116156101000203166002900480601f016020809104026020016040519081016040528092919081815260200182805460018160011615610100020316600290048015610b2d5780601f10610b0257610100808354040283529160200191610b2d565b820191906000526020600020905b815481529060010190602001808311610b1057829003601f168201915b5050505050815260200160018201548152602001600282015481526020016003820160009054906101000a900473ffffffffffffffffffffffffffffffffffffffff1673ffffffffffffffffffffffffffffffffffffffff1673ffffffffffffffffffffffffffffffffffffffff16815250509050806020015181604001511015610bbc576000915050610bc2565b60019150505b919050565b6060610bd1610d29565b6001600084815260200190815260200160002060806040519081016040529081600082018054600181600116156101000203166002900480601f016020809104026020016040519081016040528092919081815260200182805460018160011615610100020316600290048015610c895780601f10610c5e57610100808354040283529160200191610c89565b820191906000526020600020905b815481529060010190602001808311610c6c57829003601f168201915b5050505050815260200160018201548152602001600282015481526020016003820160009054906101000a900473ffffffffffffffffffffffffffffffffffffffff1673ffffffffffffffffffffffffffffffffffffffff1673ffffffffffffffffffffffffffffffffffffffff168152505090508060000151915050919050565b6000808284019050838110151515610d1f57fe5b8091505092915050565b608060405190810160405280606081526020016000815260200160008152602001600073ffffffffffffffffffffffffffffffffffffffff1681525090565b828054600181600116156101000203166002900490600052602060002090601f016020900481019282601f10610da957805160ff1916838001178555610dd7565b82800160010185558215610dd7579182015b82811115610dd6578251825591602001919060010190610dbb565b5b509050610de49190610de8565b5090565b610e0a91905b80821115610e06576000816000905550600101610dee565b5090565b9056fea165627a7a72305820a9a6dda3912bb0a9acae086e6dd571df7c5cec264a54a1baca0e697155f349f10029",
  "source": "/*\n    This exercise has been updated to use Solidity version 0.5\n    Breaking changes from 0.4 to 0.5 can be found here: \n    https://solidity.readthedocs.io/en/v0.5.0/050-breaking-changes.html\n*/\n\npragma solidity ^0.5.0;\nimport \"./SafeMath.sol\";\n\ncontract FundFactory {\n\n\n  /* variable called noOfFunds to track the most total list of funds # */\n  \n  uint public noOfFunds;\n  /* funds creates a public mapping that maps the fundId (a number) to a Fund.\n  */\n  mapping (uint => Fund) public funds;\n\n  /* reflect  the state of a fund using State enum*/\n  enum State  {onGoing, Closed}\n  /**  struct used to strore list of funds, created one for each new fund\n    * name, name of the fund\n    * fundHardCap, hard cap upper limit for the fund\n    * balance, current balance fo the fund\n    *benfitiaryAddress benefitiary address of the fund\n  **/\n    struct Fund {\n        string name;\n        uint fundHardCap;\n        uint balance;\n        address payable benfitiaryAddress;\n    }\n    //events below fired for each function call that change contract state\n    event fundCreation(uint fundId);\n    event fundContribution(uint messageReceived);\n    event OnGoing(string name, uint balance,string status);\n    event Closed(string name, uint balance, State state);\n    \n  //modifier to check if the msg.value is greater than 0\n  modifier paidEnough(uint _price) { require(_price>0); _;}\n\n  //modifier to check if the fund state is OnGoing\n  /*modifier onGoing(uint _fundId) {\n    require(funds[_fundId].state ==State.onGoing);\n        _;\n    }\n  modifier closed(uint _fundId) {\n        require(funds[_fundId].state == State.Closed);\n        _;\n    }\n*/\n \n  /** @dev  function creates a new fund\n    * @param _name name of the fund\n    * @param _fundHardCap hard cap upper limit for the fund\n    * @param _benfitiaryAddress benefitiary address of the fund\n    * emits an event with fundId\n  **/\n   function createNewFund(string memory _name, uint _fundHardCap,address payable  _benfitiaryAddress) public \n   {\n    uint fundId = noOfFunds++;\n    funds[fundId] = Fund(_name, _fundHardCap, 0, _benfitiaryAddress);\n    emit fundCreation((fundId));\n\n  }\n\n  /** @dev  payable function that allows users to contribute to a fund\n    * @param _fundId unique id to identify the fund in the mapping funds \n    * emits an event with the new balance\n  **/\n  function contributeToFund(uint _fundId) public payable paidEnough(msg.value) \n {\n    Fund memory f = funds[_fundId];\n    if(f.balance<f.fundHardCap){\n      f.balance = SafeMath.add(f.balance , msg.value);\n      emit fundContribution(f.balance);\n   } \n   else{\n     //f.state = State.Closed;\n      emit fundContribution(0);\n    }\n   \n    }\n  /** @dev  get the name of the fund by using unique fundId\n    * @param _fundId unique id to identify the fund in the mapping funds \n    * @return fund name  \n  **/\n   function fundIdToName(uint _fundId) public view returns(string memory) \n  {\n    Fund memory f = funds[_fundId];\n    return(f.name);\n   } \n\n   /** @dev get number of funds \n    * @return noOfFunds  \n  **/\n  function getNoOfFunds() public view returns (uint ) {\n    return(noOfFunds);\n  }\n  \n   /** @dev  view function to get fund details using unqiue _fundId\n    * @param _fundId  unique identifier for the fund\n    * @return name , name of the fund\n    * @return  fundHardCap, hard cap upper limit for the fund\n    * @return balance, current balance fo the fund\n    * @return benfitiaryAddress benefitiary address of the fund\n  **/\n  function fetchFundDetails(uint _fundId) public view returns (string memory, uint , uint , address ) {\n    Fund memory f  = funds[_fundId];\n    string memory name = f.name;\n    uint balance = f.balance;\n    uint fundHardCap = f.fundHardCap;\n    //state = f.state;\n    address benfitiaryAddress = f.benfitiaryAddress;\n    return (name, fundHardCap, balance, benfitiaryAddress);\n  }\n  \n  \n  /** @dev  view function to check if the hardcap of the fund is reached\n    * @param _fundId  unique identifier for the fund\n    * @return boolean , true or false if the fund has reached its goal or not\n  **/\n  function checkHardCapReached(uint _fundId) public view returns (bool) {\n        Fund memory f = funds[_fundId];\n        if (f.balance < f.fundHardCap)    \n            return false;\n        else \n          return true;\n       /* uint amount = f.balance;\n        f.balance = 0;\n        f.targetAddress.transfer(amount);\n        return true; */\n    }\n}",
  "sourcePath": "/media/raj/Additionaldrive/truffle_react/contracts/FundFactory.sol",
  "compiler": {
    "name": "solc",
    "version": "0.5.0+commit.1d4f565a.Emscripten.clang"
  },
  "schemaVersion": "3.0.1",
  "updatedAt": "2019-01-27T20:15:41.743Z",
  "devdoc": {
    "methods": {
      "checkHardCapReached(uint256)": {
        "details": "view function to check if the hardcap of the fund is reached",
        "params": {
          "_fundId": "unique identifier for the fund"
        },
        "return": "boolean , true or false if the fund has reached its goal or not*"
      },
      "contributeToFund(uint256)": {
        "details": "payable function that allows users to contribute to a fund",
        "params": {
          "_fundId": "unique id to identify the fund in the mapping funds  emits an event with the new balance*"
        }
      },
      "createNewFund(string,uint256,address)": {
        "details": "function creates a new fund",
        "params": {
          "_benfitiaryAddress": "benefitiary address of the fund emits an event with fundId*",
          "_fundHardCap": "hard cap upper limit for the fund",
          "_name": "name of the fund"
        }
      },
      "fetchFundDetails(uint256)": {
        "details": "view function to get fund details using unqiue _fundId",
        "params": {
          "_fundId": "unique identifier for the fund"
        },
        "return": "name , name of the fundfundHardCap, hard cap upper limit for the fundbalance, current balance fo the fundbenfitiaryAddress benefitiary address of the fund*"
      },
      "fundIdToName(uint256)": {
        "details": "get the name of the fund by using unique fundId",
        "params": {
          "_fundId": "unique id to identify the fund in the mapping funds "
        },
        "return": "fund name  *"
      },
      "getNoOfFunds()": {
        "details": "get number of funds ",
        "return": "noOfFunds  *"
      }
    }
  },
  "userdoc": {
    "methods": {}
  }
}